{
  "_format": "hh-sol-artifact-1",
  "contractName": "BallotPortal",
  "sourceName": "contracts/BallotPortal.sol",
  "abi": [
    {
      "inputs": [],
      "stateMutability": "nonpayable",
      "type": "constructor"
    },
    {
      "inputs": [
        {
          "internalType": "uint256",
          "name": "",
          "type": "uint256"
        }
      ],
      "name": "ballots",
      "outputs": [
        {
          "internalType": "uint256",
          "name": "id",
          "type": "uint256"
        },
        {
          "internalType": "address",
          "name": "author",
          "type": "address"
        },
        {
          "internalType": "uint256",
          "name": "timestamp",
          "type": "uint256"
        },
        {
          "internalType": "string",
          "name": "title",
          "type": "string"
        },
        {
          "internalType": "string",
          "name": "description",
          "type": "string"
        },
        {
          "internalType": "bool",
          "name": "disabled",
          "type": "bool"
        },
        {
          "internalType": "bool",
          "name": "deleted",
          "type": "bool"
        }
      ],
      "stateMutability": "view",
      "type": "function"
    },
    {
      "inputs": [
        {
          "internalType": "string",
          "name": "_title",
          "type": "string"
        },
        {
          "internalType": "string",
          "name": "_description",
          "type": "string"
        },
        {
          "internalType": "string[]",
          "name": "_texts",
          "type": "string[]"
        }
      ],
      "name": "createBallot",
      "outputs": [],
      "stateMutability": "nonpayable",
      "type": "function"
    },
    {
      "inputs": [
        {
          "internalType": "uint256",
          "name": "index",
          "type": "uint256"
        },
        {
          "internalType": "bool",
          "name": "newValue",
          "type": "bool"
        }
      ],
      "name": "deleteBallot",
      "outputs": [
        {
          "components": [
            {
              "internalType": "uint256",
              "name": "id",
              "type": "uint256"
            },
            {
              "internalType": "address",
              "name": "author",
              "type": "address"
            },
            {
              "internalType": "uint256",
              "name": "timestamp",
              "type": "uint256"
            },
            {
              "internalType": "string",
              "name": "title",
              "type": "string"
            },
            {
              "internalType": "string",
              "name": "description",
              "type": "string"
            },
            {
              "components": [
                {
                  "internalType": "uint256",
                  "name": "id",
                  "type": "uint256"
                },
                {
                  "internalType": "string",
                  "name": "text",
                  "type": "string"
                },
                {
                  "internalType": "uint256",
                  "name": "votes",
                  "type": "uint256"
                }
              ],
              "internalType": "struct BallotPortal.Proposal[]",
              "name": "proposals",
              "type": "tuple[]"
            },
            {
              "components": [
                {
                  "internalType": "uint256",
                  "name": "id",
                  "type": "uint256"
                },
                {
                  "internalType": "address",
                  "name": "voter",
                  "type": "address"
                },
                {
                  "internalType": "uint256",
                  "name": "timestamp",
                  "type": "uint256"
                },
                {
                  "internalType": "uint256",
                  "name": "proposalId",
                  "type": "uint256"
                }
              ],
              "internalType": "struct BallotPortal.Historical[]",
              "name": "historic",
              "type": "tuple[]"
            },
            {
              "internalType": "bool",
              "name": "disabled",
              "type": "bool"
            },
            {
              "internalType": "bool",
              "name": "deleted",
              "type": "bool"
            }
          ],
          "internalType": "struct BallotPortal.Ballot",
          "name": "",
          "type": "tuple"
        }
      ],
      "stateMutability": "nonpayable",
      "type": "function"
    },
    {
      "inputs": [
        {
          "internalType": "uint256",
          "name": "index",
          "type": "uint256"
        },
        {
          "internalType": "bool",
          "name": "newValue",
          "type": "bool"
        }
      ],
      "name": "disableBallot",
      "outputs": [
        {
          "components": [
            {
              "internalType": "uint256",
              "name": "id",
              "type": "uint256"
            },
            {
              "internalType": "address",
              "name": "author",
              "type": "address"
            },
            {
              "internalType": "uint256",
              "name": "timestamp",
              "type": "uint256"
            },
            {
              "internalType": "string",
              "name": "title",
              "type": "string"
            },
            {
              "internalType": "string",
              "name": "description",
              "type": "string"
            },
            {
              "components": [
                {
                  "internalType": "uint256",
                  "name": "id",
                  "type": "uint256"
                },
                {
                  "internalType": "string",
                  "name": "text",
                  "type": "string"
                },
                {
                  "internalType": "uint256",
                  "name": "votes",
                  "type": "uint256"
                }
              ],
              "internalType": "struct BallotPortal.Proposal[]",
              "name": "proposals",
              "type": "tuple[]"
            },
            {
              "components": [
                {
                  "internalType": "uint256",
                  "name": "id",
                  "type": "uint256"
                },
                {
                  "internalType": "address",
                  "name": "voter",
                  "type": "address"
                },
                {
                  "internalType": "uint256",
                  "name": "timestamp",
                  "type": "uint256"
                },
                {
                  "internalType": "uint256",
                  "name": "proposalId",
                  "type": "uint256"
                }
              ],
              "internalType": "struct BallotPortal.Historical[]",
              "name": "historic",
              "type": "tuple[]"
            },
            {
              "internalType": "bool",
              "name": "disabled",
              "type": "bool"
            },
            {
              "internalType": "bool",
              "name": "deleted",
              "type": "bool"
            }
          ],
          "internalType": "struct BallotPortal.Ballot",
          "name": "",
          "type": "tuple"
        }
      ],
      "stateMutability": "nonpayable",
      "type": "function"
    },
    {
      "inputs": [],
      "name": "getAllBallots",
      "outputs": [
        {
          "components": [
            {
              "internalType": "uint256",
              "name": "id",
              "type": "uint256"
            },
            {
              "internalType": "address",
              "name": "author",
              "type": "address"
            },
            {
              "internalType": "uint256",
              "name": "timestamp",
              "type": "uint256"
            },
            {
              "internalType": "string",
              "name": "title",
              "type": "string"
            },
            {
              "internalType": "string",
              "name": "description",
              "type": "string"
            },
            {
              "components": [
                {
                  "internalType": "uint256",
                  "name": "id",
                  "type": "uint256"
                },
                {
                  "internalType": "string",
                  "name": "text",
                  "type": "string"
                },
                {
                  "internalType": "uint256",
                  "name": "votes",
                  "type": "uint256"
                }
              ],
              "internalType": "struct BallotPortal.Proposal[]",
              "name": "proposals",
              "type": "tuple[]"
            },
            {
              "components": [
                {
                  "internalType": "uint256",
                  "name": "id",
                  "type": "uint256"
                },
                {
                  "internalType": "address",
                  "name": "voter",
                  "type": "address"
                },
                {
                  "internalType": "uint256",
                  "name": "timestamp",
                  "type": "uint256"
                },
                {
                  "internalType": "uint256",
                  "name": "proposalId",
                  "type": "uint256"
                }
              ],
              "internalType": "struct BallotPortal.Historical[]",
              "name": "historic",
              "type": "tuple[]"
            },
            {
              "internalType": "bool",
              "name": "disabled",
              "type": "bool"
            },
            {
              "internalType": "bool",
              "name": "deleted",
              "type": "bool"
            }
          ],
          "internalType": "struct BallotPortal.Ballot[]",
          "name": "",
          "type": "tuple[]"
        }
      ],
      "stateMutability": "view",
      "type": "function"
    },
    {
      "inputs": [],
      "name": "getTotalBallots",
      "outputs": [
        {
          "internalType": "uint256",
          "name": "",
          "type": "uint256"
        }
      ],
      "stateMutability": "view",
      "type": "function"
    },
    {
      "inputs": [
        {
          "internalType": "uint256",
          "name": "ballotIndex",
          "type": "uint256"
        },
        {
          "internalType": "uint256",
          "name": "proposalIndex",
          "type": "uint256"
        }
      ],
      "name": "vote",
      "outputs": [
        {
          "components": [
            {
              "internalType": "uint256",
              "name": "id",
              "type": "uint256"
            },
            {
              "internalType": "address",
              "name": "author",
              "type": "address"
            },
            {
              "internalType": "uint256",
              "name": "timestamp",
              "type": "uint256"
            },
            {
              "internalType": "string",
              "name": "title",
              "type": "string"
            },
            {
              "internalType": "string",
              "name": "description",
              "type": "string"
            },
            {
              "components": [
                {
                  "internalType": "uint256",
                  "name": "id",
                  "type": "uint256"
                },
                {
                  "internalType": "string",
                  "name": "text",
                  "type": "string"
                },
                {
                  "internalType": "uint256",
                  "name": "votes",
                  "type": "uint256"
                }
              ],
              "internalType": "struct BallotPortal.Proposal[]",
              "name": "proposals",
              "type": "tuple[]"
            },
            {
              "components": [
                {
                  "internalType": "uint256",
                  "name": "id",
                  "type": "uint256"
                },
                {
                  "internalType": "address",
                  "name": "voter",
                  "type": "address"
                },
                {
                  "internalType": "uint256",
                  "name": "timestamp",
                  "type": "uint256"
                },
                {
                  "internalType": "uint256",
                  "name": "proposalId",
                  "type": "uint256"
                }
              ],
              "internalType": "struct BallotPortal.Historical[]",
              "name": "historic",
              "type": "tuple[]"
            },
            {
              "internalType": "bool",
              "name": "disabled",
              "type": "bool"
            },
            {
              "internalType": "bool",
              "name": "deleted",
              "type": "bool"
            }
          ],
          "internalType": "struct BallotPortal.Ballot",
          "name": "",
          "type": "tuple"
        }
      ],
      "stateMutability": "nonpayable",
      "type": "function"
    }
  ],
  "bytecode": "0x60806040523480156200001157600080fd5b506200005d6040518060400160405280601581526020017f42616c6c6f7420536d61727420436f6e747261637400000000000000000000008152506200006360201b620019e81760201c565b620001f7565b62000103816040516024016200007a919062000170565b6040516020818303038152906040527f41304fac000000000000000000000000000000000000000000000000000000007bffffffffffffffffffffffffffffffffffffffffffffffffffffffff19166020820180517bffffffffffffffffffffffffffffffffffffffffffffffffffffffff83818316178352505050506200010660201b60201c565b50565b60008151905060006a636f6e736f6c652e6c6f679050602083016000808483855afa5050505050565b60006200013c8262000194565b6200014881856200019f565b93506200015a818560208601620001b0565b6200016581620001e6565b840191505092915050565b600060208201905081810360008301526200018c81846200012f565b905092915050565b600081519050919050565b600082825260208201905092915050565b60005b83811015620001d0578082015181840152602081019050620001b3565b83811115620001e0576000848401525b50505050565b6000601f19601f8301169050919050565b612b5180620002076000396000f3fe608060405234801561001057600080fd5b506004361061007d5760003560e01c8063677d5a1d1161005b578063677d5a1d146100f4578063b384abef14610124578063d62d808914610154578063fcfe201c146101705761007d565b80630b8710e414610082578063317b1a33146100a05780635c632b38146100be575b600080fd5b61008a6101a0565b6040516100979190612543565b60405180910390f35b6100a861059c565b6040516100b5919061269e565b60405180910390f35b6100d860048036038101906100d39190611ef5565b6105e7565b6040516100eb97969594939291906126b9565b60405180910390f35b61010e60048036038101906101099190611f1e565b610783565b60405161011b919061267c565b60405180910390f35b61013e60048036038101906101399190611f5a565b610ba5565b60405161014b919061267c565b60405180910390f35b61016e60048036038101906101699190611e5e565b611371565b005b61018a60048036038101906101859190611f1e565b6115c6565b604051610197919061267c565b60405180910390f35b60606002805480602002602001604051908101604052809291908181526020016000905b82821015610593578382906000526020600020906008020160405180610120016040529081600082015481526020016001820160009054906101000a900473ffffffffffffffffffffffffffffffffffffffff1673ffffffffffffffffffffffffffffffffffffffff1673ffffffffffffffffffffffffffffffffffffffff16815260200160028201548152602001600382018054610262906129af565b80601f016020809104026020016040519081016040528092919081815260200182805461028e906129af565b80156102db5780601f106102b0576101008083540402835291602001916102db565b820191906000526020600020905b8154815290600101906020018083116102be57829003601f168201915b505050505081526020016004820180546102f4906129af565b80601f0160208091040260200160405190810160405280929190818152602001828054610320906129af565b801561036d5780601f106103425761010080835404028352916020019161036d565b820191906000526020600020905b81548152906001019060200180831161035057829003601f168201915b5050505050815260200160058201805480602002602001604051908101604052809291908181526020016000905b828210156104735783829060005260206000209060030201604051806060016040529081600082015481526020016001820180546103d8906129af565b80601f0160208091040260200160405190810160405280929190818152602001828054610404906129af565b80156104515780601f1061042657610100808354040283529160200191610451565b820191906000526020600020905b81548152906001019060200180831161043457829003601f168201915b505050505081526020016002820154815250508152602001906001019061039b565b50505050815260200160068201805480602002602001604051908101604052809291908181526020016000905b828210156105465783829060005260206000209060040201604051806080016040529081600082015481526020016001820160009054906101000a900473ffffffffffffffffffffffffffffffffffffffff1673ffffffffffffffffffffffffffffffffffffffff1673ffffffffffffffffffffffffffffffffffffffff16815260200160028201548152602001600382015481525050815260200190600101906104a0565b5050505081526020016007820160009054906101000a900460ff161515151581526020016007820160019054906101000a900460ff161515151581525050815260200190600101906101c4565b50505050905090565b60006105df6040518060400160405280601a81526020017f54656d6f732025642062616c6c6f7473206e6f20746f74616c21000000000000815250600054611a81565b600054905090565b600281815481106105f757600080fd5b90600052602060002090600802016000915090508060000154908060010160009054906101000a900473ffffffffffffffffffffffffffffffffffffffff169080600201549080600301805461064c906129af565b80601f0160208091040260200160405190810160405280929190818152602001828054610678906129af565b80156106c55780601f1061069a576101008083540402835291602001916106c5565b820191906000526020600020905b8154815290600101906020018083116106a857829003601f168201915b5050505050908060040180546106da906129af565b80601f0160208091040260200160405190810160405280929190818152602001828054610706906129af565b80156107535780601f1061072857610100808354040283529160200191610753565b820191906000526020600020905b81548152906001019060200180831161073657829003601f168201915b5050505050908060070160009054906101000a900460ff16908060070160019054906101000a900460ff16905087565b61078b611c1b565b6000600284815481106107c7577f4e487b7100000000000000000000000000000000000000000000000000000000600052603260045260246000fd5b90600052602060002090600802019050828160070160006101000a81548160ff0219169083151502179055508060405180610120016040529081600082015481526020016001820160009054906101000a900473ffffffffffffffffffffffffffffffffffffffff1673ffffffffffffffffffffffffffffffffffffffff1673ffffffffffffffffffffffffffffffffffffffff1681526020016002820154815260200160038201805461087a906129af565b80601f01602080910402602001604051908101604052809291908181526020018280546108a6906129af565b80156108f35780601f106108c8576101008083540402835291602001916108f3565b820191906000526020600020905b8154815290600101906020018083116108d657829003601f168201915b5050505050815260200160048201805461090c906129af565b80601f0160208091040260200160405190810160405280929190818152602001828054610938906129af565b80156109855780601f1061095a57610100808354040283529160200191610985565b820191906000526020600020905b81548152906001019060200180831161096857829003601f168201915b5050505050815260200160058201805480602002602001604051908101604052809291908181526020016000905b82821015610a8b5783829060005260206000209060030201604051806060016040529081600082015481526020016001820180546109f0906129af565b80601f0160208091040260200160405190810160405280929190818152602001828054610a1c906129af565b8015610a695780601f10610a3e57610100808354040283529160200191610a69565b820191906000526020600020905b815481529060010190602001808311610a4c57829003601f168201915b50505050508152602001600282015481525050815260200190600101906109b3565b50505050815260200160068201805480602002602001604051908101604052809291908181526020016000905b82821015610b5e5783829060005260206000209060040201604051806080016040529081600082015481526020016001820160009054906101000a900473ffffffffffffffffffffffffffffffffffffffff1673ffffffffffffffffffffffffffffffffffffffff1673ffffffffffffffffffffffffffffffffffffffff1681526020016002820154815260200160038201548152505081526020019060010190610ab8565b5050505081526020016007820160009054906101000a900460ff161515151581526020016007820160019054906101000a900460ff16151515158152505091505092915050565b610bad611c1b565b6002805490508310610bf4576040517f08c379a0000000000000000000000000000000000000000000000000000000008152600401610beb9061261c565b60405180910390fd5b610c4460028481548110610c31577f4e487b7100000000000000000000000000000000000000000000000000000000600052603260045260246000fd5b9060005260206000209060080201611b1d565b15610c84576040517f08c379a0000000000000000000000000000000000000000000000000000000008152600401610c7b9061265c565b60405180910390fd5b610cd460028481548110610cc1577f4e487b7100000000000000000000000000000000000000000000000000000000600052603260045260246000fd5b9060005260206000209060080201611b38565b15610d14576040517f08c379a0000000000000000000000000000000000000000000000000000000008152600401610d0b906125fc565b60405180910390fd5b60028381548110610d4e577f4e487b7100000000000000000000000000000000000000000000000000000000600052603260045260246000fd5b9060005260206000209060080201600501805490508210610da4576040517f08c379a0000000000000000000000000000000000000000000000000000000008152600401610d9b9061263c565b60405180910390fd5b600060028481548110610de0577f4e487b7100000000000000000000000000000000000000000000000000000000600052603260045260246000fd5b90600052602060002090600802019050600060028581548110610e2c577f4e487b7100000000000000000000000000000000000000000000000000000000600052603260045260246000fd5b906000526020600020906008020160060180549050905060028581548110610e7d577f4e487b7100000000000000000000000000000000000000000000000000000000600052603260045260246000fd5b906000526020600020906008020160060160405180608001604052808381526020013373ffffffffffffffffffffffffffffffffffffffff1681526020014281526020018681525090806001815401808255809150506001900390600052602060002090600402016000909190919091506000820151816000015560208201518160010160006101000a81548173ffffffffffffffffffffffffffffffffffffffff021916908373ffffffffffffffffffffffffffffffffffffffff160217905550604082015181600201556060820151816003015550506000826005018581548110610f93577f4e487b7100000000000000000000000000000000000000000000000000000000600052603260045260246000fd5b90600052602060002090600302019050806002016000815480929190610fb8906129e1565b91905055508260405180610120016040529081600082015481526020016001820160009054906101000a900473ffffffffffffffffffffffffffffffffffffffff1673ffffffffffffffffffffffffffffffffffffffff1673ffffffffffffffffffffffffffffffffffffffff16815260200160028201548152602001600382018054611044906129af565b80601f0160208091040260200160405190810160405280929190818152602001828054611070906129af565b80156110bd5780601f10611092576101008083540402835291602001916110bd565b820191906000526020600020905b8154815290600101906020018083116110a057829003601f168201915b505050505081526020016004820180546110d6906129af565b80601f0160208091040260200160405190810160405280929190818152602001828054611102906129af565b801561114f5780601f106111245761010080835404028352916020019161114f565b820191906000526020600020905b81548152906001019060200180831161113257829003601f168201915b5050505050815260200160058201805480602002602001604051908101604052809291908181526020016000905b828210156112555783829060005260206000209060030201604051806060016040529081600082015481526020016001820180546111ba906129af565b80601f01602080910402602001604051908101604052809291908181526020018280546111e6906129af565b80156112335780601f1061120857610100808354040283529160200191611233565b820191906000526020600020905b81548152906001019060200180831161121657829003601f168201915b505050505081526020016002820154815250508152602001906001019061117d565b50505050815260200160068201805480602002602001604051908101604052809291908181526020016000905b828210156113285783829060005260206000209060040201604051806080016040529081600082015481526020016001820160009054906101000a900473ffffffffffffffffffffffffffffffffffffffff1673ffffffffffffffffffffffffffffffffffffffff1673ffffffffffffffffffffffffffffffffffffffff1681526020016002820154815260200160038201548152505081526020019060010190611282565b5050505081526020016007820160009054906101000a900460ff161515151581526020016007820160019054906101000a900460ff161515151581525050935050505092915050565b6001600080828254611383919061289b565b92505081905550600180600082825461139c919061289b565b925050819055506113c6604051806060016040528060258152602001612af7602591393385611b53565b600060026001816001815401808255809150500390600052602060002090600802019050600180546113f891906128f1565b8160000181905550338160010160006101000a81548173ffffffffffffffffffffffffffffffffffffffff021916908373ffffffffffffffffffffffffffffffffffffffff16021790555042816002018190555083816003019080519060200190611464929190611c81565b508281600401908051906020019061147d929190611c81565b5060008160070160006101000a81548160ff02191690831515021790555060008160070160016101000a81548160ff021916908315150217905550806006016001816001815401808255809150500390600052602060002090505060005b82518110156115bf576114ec611d07565b8181600001818152505083828151811061152f577f4e487b7100000000000000000000000000000000000000000000000000000000600052603260045260246000fd5b6020026020010151816020018190525060008160400181815250508260050181908060018154018082558091505060019003906000526020600020906003020160009091909190915060008201518160000155602082015181600101908051906020019061159e929190611c81565b506040820151816002015550505080806115b7906129e1565b9150506114db565b5050505050565b6115ce611c1b565b60006002848154811061160a577f4e487b7100000000000000000000000000000000000000000000000000000000600052603260045260246000fd5b90600052602060002090600802019050828160070160016101000a81548160ff0219169083151502179055508060405180610120016040529081600082015481526020016001820160009054906101000a900473ffffffffffffffffffffffffffffffffffffffff1673ffffffffffffffffffffffffffffffffffffffff1673ffffffffffffffffffffffffffffffffffffffff168152602001600282015481526020016003820180546116bd906129af565b80601f01602080910402602001604051908101604052809291908181526020018280546116e9906129af565b80156117365780601f1061170b57610100808354040283529160200191611736565b820191906000526020600020905b81548152906001019060200180831161171957829003601f168201915b5050505050815260200160048201805461174f906129af565b80601f016020809104026020016040519081016040528092919081815260200182805461177b906129af565b80156117c85780601f1061179d576101008083540402835291602001916117c8565b820191906000526020600020905b8154815290600101906020018083116117ab57829003601f168201915b5050505050815260200160058201805480602002602001604051908101604052809291908181526020016000905b828210156118ce578382906000526020600020906003020160405180606001604052908160008201548152602001600182018054611833906129af565b80601f016020809104026020016040519081016040528092919081815260200182805461185f906129af565b80156118ac5780601f10611881576101008083540402835291602001916118ac565b820191906000526020600020905b81548152906001019060200180831161188f57829003601f168201915b50505050508152602001600282015481525050815260200190600101906117f6565b50505050815260200160068201805480602002602001604051908101604052809291908181526020016000905b828210156119a15783829060005260206000209060040201604051806080016040529081600082015481526020016001820160009054906101000a900473ffffffffffffffffffffffffffffffffffffffff1673ffffffffffffffffffffffffffffffffffffffff1673ffffffffffffffffffffffffffffffffffffffff16815260200160028201548152602001600382015481525050815260200190600101906118fb565b5050505081526020016007820160009054906101000a900460ff161515151581526020016007820160019054906101000a900460ff16151515158152505091505092915050565b611a7e816040516024016119fc9190612565565b6040516020818303038152906040527f41304fac000000000000000000000000000000000000000000000000000000007bffffffffffffffffffffffffffffffffffffffffffffffffffffffff19166020820180517bffffffffffffffffffffffffffffffffffffffffffffffffffffffff8381831617835250505050611bf2565b50565b611b198282604051602401611a979291906125cc565b6040516020818303038152906040527f9710a9d0000000000000000000000000000000000000000000000000000000007bffffffffffffffffffffffffffffffffffffffffffffffffffffffff19166020820180517bffffffffffffffffffffffffffffffffffffffffffffffffffffffff8381831617835250505050611bf2565b5050565b60008160070160009054906101000a900460ff169050919050565b60008160070160019054906101000a900460ff169050919050565b611bed838383604051602401611b6b93929190612587565b6040516020818303038152906040527fe0e9ad4f000000000000000000000000000000000000000000000000000000007bffffffffffffffffffffffffffffffffffffffffffffffffffffffff19166020820180517bffffffffffffffffffffffffffffffffffffffffffffffffffffffff8381831617835250505050611bf2565b505050565b60008151905060006a636f6e736f6c652e6c6f679050602083016000808483855afa5050505050565b60405180610120016040528060008152602001600073ffffffffffffffffffffffffffffffffffffffff16815260200160008152602001606081526020016060815260200160608152602001606081526020016000151581526020016000151581525090565b828054611c8d906129af565b90600052602060002090601f016020900481019282611caf5760008555611cf6565b82601f10611cc857805160ff1916838001178555611cf6565b82800160010185558215611cf6579182015b82811115611cf5578251825591602001919060010190611cda565b5b509050611d039190611d28565b5090565b60405180606001604052806000815260200160608152602001600081525090565b5b80821115611d41576000816000905550600101611d29565b5090565b6000611d58611d5384612767565b612736565b9050808382526020820190508260005b85811015611d985781358501611d7e8882611e1f565b845260208401935060208301925050600181019050611d68565b5050509392505050565b6000611db5611db084612793565b612736565b905082815260208101848484011115611dcd57600080fd5b611dd884828561296d565b509392505050565b600082601f830112611df157600080fd5b8135611e01848260208601611d45565b91505092915050565b600081359050611e1981612ac8565b92915050565b600082601f830112611e3057600080fd5b8135611e40848260208601611da2565b91505092915050565b600081359050611e5881612adf565b92915050565b600080600060608486031215611e7357600080fd5b600084013567ffffffffffffffff811115611e8d57600080fd5b611e9986828701611e1f565b935050602084013567ffffffffffffffff811115611eb657600080fd5b611ec286828701611e1f565b925050604084013567ffffffffffffffff811115611edf57600080fd5b611eeb86828701611de0565b9150509250925092565b600060208284031215611f0757600080fd5b6000611f1584828501611e49565b91505092915050565b60008060408385031215611f3157600080fd5b6000611f3f85828601611e49565b9250506020611f5085828601611e0a565b9150509250929050565b60008060408385031215611f6d57600080fd5b6000611f7b85828601611e49565b9250506020611f8c85828601611e49565b9150509250929050565b6000611fa283836122cc565b905092915050565b6000611fb68383612480565b60808301905092915050565b6000611fce83836124d5565b905092915050565b611fdf81612925565b82525050565b611fee81612925565b82525050565b6000611fff826127f3565b6120098185612846565b93508360208202850161201b856127c3565b8060005b8581101561205757848403895281516120388582611f96565b94506120438361281f565b925060208a0199505060018101905061201f565b50829750879550505050505092915050565b6000612074826127fe565b61207e8185612857565b9350612089836127d3565b8060005b838110156120ba5781516120a18882611faa565b97506120ac8361282c565b92505060018101905061208d565b5085935050505092915050565b60006120d282612809565b6120dc8185612868565b9350836020820285016120ee856127e3565b8060005b8581101561212a578484038952815161210b8582611fc2565b945061211683612839565b925060208a019950506001810190506120f2565b50829750879550505050505092915050565b61214581612937565b82525050565b61215481612937565b82525050565b600061216582612814565b61216f8185612879565b935061217f81856020860161297c565b61218881612ab7565b840191505092915050565b600061219e82612814565b6121a8818561288a565b93506121b881856020860161297c565b6121c181612ab7565b840191505092915050565b60006121d960118361288a565b91507f42616c6c6f742069732064656c657465640000000000000000000000000000006000830152602082019050919050565b600061221960158361288a565b91507f42616c6c6f7420646f6573206e6f7420657869737400000000000000000000006000830152602082019050919050565b600061225960178361288a565b91507f50726f706f73616c20646f6573206e6f742065786973740000000000000000006000830152602082019050919050565b600061229960128361288a565b91507f42616c6c6f742069732064697361626c656400000000000000000000000000006000830152602082019050919050565b6000610120830160008301516122e56000860182612525565b5060208301516122f86020860182611fd6565b50604083015161230b6040860182612525565b5060608301518482036060860152612323828261215a565b9150506080830151848203608086015261233d828261215a565b91505060a083015184820360a086015261235782826120c7565b91505060c083015184820360c08601526123718282612069565b91505060e083015161238660e086018261213c565b5061010083015161239b61010086018261213c565b508091505092915050565b6000610120830160008301516123bf6000860182612525565b5060208301516123d26020860182611fd6565b5060408301516123e56040860182612525565b50606083015184820360608601526123fd828261215a565b91505060808301518482036080860152612417828261215a565b91505060a083015184820360a086015261243182826120c7565b91505060c083015184820360c086015261244b8282612069565b91505060e083015161246060e086018261213c565b5061010083015161247561010086018261213c565b508091505092915050565b6080820160008201516124966000850182612525565b5060208201516124a96020850182611fd6565b5060408201516124bc6040850182612525565b5060608201516124cf6060850182612525565b50505050565b60006060830160008301516124ed6000860182612525565b5060208301518482036020860152612505828261215a565b915050604083015161251a6040860182612525565b508091505092915050565b61252e81612963565b82525050565b61253d81612963565b82525050565b6000602082019050818103600083015261255d8184611ff4565b905092915050565b6000602082019050818103600083015261257f8184612193565b905092915050565b600060608201905081810360008301526125a18186612193565b90506125b06020830185611fe5565b81810360408301526125c28184612193565b9050949350505050565b600060408201905081810360008301526125e68185612193565b90506125f56020830184612534565b9392505050565b60006020820190508181036000830152612615816121cc565b9050919050565b600060208201905081810360008301526126358161220c565b9050919050565b600060208201905081810360008301526126558161224c565b9050919050565b600060208201905081810360008301526126758161228c565b9050919050565b6000602082019050818103600083015261269681846123a6565b905092915050565b60006020820190506126b36000830184612534565b92915050565b600060e0820190506126ce600083018a612534565b6126db6020830189611fe5565b6126e86040830188612534565b81810360608301526126fa8187612193565b9050818103608083015261270e8186612193565b905061271d60a083018561214b565b61272a60c083018461214b565b98975050505050505050565b6000604051905081810181811067ffffffffffffffff8211171561275d5761275c612a88565b5b8060405250919050565b600067ffffffffffffffff82111561278257612781612a88565b5b602082029050602081019050919050565b600067ffffffffffffffff8211156127ae576127ad612a88565b5b601f19601f8301169050602081019050919050565b6000819050602082019050919050565b6000819050602082019050919050565b6000819050602082019050919050565b600081519050919050565b600081519050919050565b600081519050919050565b600081519050919050565b6000602082019050919050565b6000602082019050919050565b6000602082019050919050565b600082825260208201905092915050565b600082825260208201905092915050565b600082825260208201905092915050565b600082825260208201905092915050565b600082825260208201905092915050565b60006128a682612963565b91506128b183612963565b9250827fffffffffffffffffffffffffffffffffffffffffffffffffffffffffffffffff038211156128e6576128e5612a2a565b5b828201905092915050565b60006128fc82612963565b915061290783612963565b92508282101561291a57612919612a2a565b5b828203905092915050565b600061293082612943565b9050919050565b60008115159050919050565b600073ffffffffffffffffffffffffffffffffffffffff82169050919050565b6000819050919050565b82818337600083830152505050565b60005b8381101561299a57808201518184015260208101905061297f565b838111156129a9576000848401525b50505050565b600060028204905060018216806129c757607f821691505b602082108114156129db576129da612a59565b5b50919050565b60006129ec82612963565b91507fffffffffffffffffffffffffffffffffffffffffffffffffffffffffffffffff821415612a1f57612a1e612a2a565b5b600182019050919050565b7f4e487b7100000000000000000000000000000000000000000000000000000000600052601160045260246000fd5b7f4e487b7100000000000000000000000000000000000000000000000000000000600052602260045260246000fd5b7f4e487b7100000000000000000000000000000000000000000000000000000000600052604160045260246000fd5b6000601f19601f8301169050919050565b612ad181612937565b8114612adc57600080fd5b50565b612ae881612963565b8114612af357600080fd5b5056fe2573206372696f7520756d6120766f746163616f20636f6d206f20746974756c6f3a202573a2646970667358221220880f9c89da8ca27230c3bde0ee78a41bff0a978b62197d1939f9dc008474c01564736f6c63430008000033",
  "linkReferences": {},
  "deployedLinkReferences": {}
}