{
  "_format": "hh-sol-artifact-1",
  "contractName": "BallotPortal",
  "sourceName": "contracts/BallotPortal.sol",
  "abi": [
    {
      "inputs": [],
      "stateMutability": "nonpayable",
      "type": "constructor"
    },
    {
      "anonymous": false,
      "inputs": [
        {
          "components": [
            {
              "internalType": "uint256",
              "name": "id",
              "type": "uint256"
            },
            {
              "internalType": "address",
              "name": "author",
              "type": "address"
            },
            {
              "internalType": "uint256",
              "name": "timestamp",
              "type": "uint256"
            },
            {
              "internalType": "string",
              "name": "title",
              "type": "string"
            },
            {
              "internalType": "string",
              "name": "description",
              "type": "string"
            },
            {
              "components": [
                {
                  "internalType": "uint256",
                  "name": "id",
                  "type": "uint256"
                },
                {
                  "internalType": "string",
                  "name": "text",
                  "type": "string"
                },
                {
                  "internalType": "uint256",
                  "name": "votes",
                  "type": "uint256"
                }
              ],
              "internalType": "struct BallotPortal.Proposal[]",
              "name": "proposals",
              "type": "tuple[]"
            },
            {
              "internalType": "bool",
              "name": "disabled",
              "type": "bool"
            },
            {
              "internalType": "bool",
              "name": "deleted",
              "type": "bool"
            }
          ],
          "indexed": false,
          "internalType": "struct BallotPortal.Ballot",
          "name": "_ballot",
          "type": "tuple"
        }
      ],
      "name": "NewBallot",
      "type": "event"
    },
    {
      "inputs": [
        {
          "internalType": "uint256",
          "name": "",
          "type": "uint256"
        }
      ],
      "name": "ballots",
      "outputs": [
        {
          "internalType": "uint256",
          "name": "id",
          "type": "uint256"
        },
        {
          "internalType": "address",
          "name": "author",
          "type": "address"
        },
        {
          "internalType": "uint256",
          "name": "timestamp",
          "type": "uint256"
        },
        {
          "internalType": "string",
          "name": "title",
          "type": "string"
        },
        {
          "internalType": "string",
          "name": "description",
          "type": "string"
        },
        {
          "internalType": "bool",
          "name": "disabled",
          "type": "bool"
        },
        {
          "internalType": "bool",
          "name": "deleted",
          "type": "bool"
        }
      ],
      "stateMutability": "view",
      "type": "function"
    },
    {
      "inputs": [
        {
          "internalType": "string",
          "name": "_title",
          "type": "string"
        },
        {
          "internalType": "string",
          "name": "_description",
          "type": "string"
        },
        {
          "internalType": "string[]",
          "name": "_texts",
          "type": "string[]"
        }
      ],
      "name": "createBallot",
      "outputs": [],
      "stateMutability": "nonpayable",
      "type": "function"
    },
    {
      "inputs": [
        {
          "internalType": "uint256",
          "name": "index",
          "type": "uint256"
        },
        {
          "internalType": "bool",
          "name": "newValue",
          "type": "bool"
        }
      ],
      "name": "deleteBallot",
      "outputs": [
        {
          "components": [
            {
              "internalType": "uint256",
              "name": "id",
              "type": "uint256"
            },
            {
              "internalType": "address",
              "name": "author",
              "type": "address"
            },
            {
              "internalType": "uint256",
              "name": "timestamp",
              "type": "uint256"
            },
            {
              "internalType": "string",
              "name": "title",
              "type": "string"
            },
            {
              "internalType": "string",
              "name": "description",
              "type": "string"
            },
            {
              "components": [
                {
                  "internalType": "uint256",
                  "name": "id",
                  "type": "uint256"
                },
                {
                  "internalType": "string",
                  "name": "text",
                  "type": "string"
                },
                {
                  "internalType": "uint256",
                  "name": "votes",
                  "type": "uint256"
                }
              ],
              "internalType": "struct BallotPortal.Proposal[]",
              "name": "proposals",
              "type": "tuple[]"
            },
            {
              "internalType": "bool",
              "name": "disabled",
              "type": "bool"
            },
            {
              "internalType": "bool",
              "name": "deleted",
              "type": "bool"
            }
          ],
          "internalType": "struct BallotPortal.Ballot",
          "name": "",
          "type": "tuple"
        }
      ],
      "stateMutability": "nonpayable",
      "type": "function"
    },
    {
      "inputs": [
        {
          "internalType": "uint256",
          "name": "index",
          "type": "uint256"
        },
        {
          "internalType": "bool",
          "name": "newValue",
          "type": "bool"
        }
      ],
      "name": "disableBallot",
      "outputs": [
        {
          "components": [
            {
              "internalType": "uint256",
              "name": "id",
              "type": "uint256"
            },
            {
              "internalType": "address",
              "name": "author",
              "type": "address"
            },
            {
              "internalType": "uint256",
              "name": "timestamp",
              "type": "uint256"
            },
            {
              "internalType": "string",
              "name": "title",
              "type": "string"
            },
            {
              "internalType": "string",
              "name": "description",
              "type": "string"
            },
            {
              "components": [
                {
                  "internalType": "uint256",
                  "name": "id",
                  "type": "uint256"
                },
                {
                  "internalType": "string",
                  "name": "text",
                  "type": "string"
                },
                {
                  "internalType": "uint256",
                  "name": "votes",
                  "type": "uint256"
                }
              ],
              "internalType": "struct BallotPortal.Proposal[]",
              "name": "proposals",
              "type": "tuple[]"
            },
            {
              "internalType": "bool",
              "name": "disabled",
              "type": "bool"
            },
            {
              "internalType": "bool",
              "name": "deleted",
              "type": "bool"
            }
          ],
          "internalType": "struct BallotPortal.Ballot",
          "name": "",
          "type": "tuple"
        }
      ],
      "stateMutability": "nonpayable",
      "type": "function"
    },
    {
      "inputs": [],
      "name": "getAllBallots",
      "outputs": [
        {
          "components": [
            {
              "internalType": "uint256",
              "name": "id",
              "type": "uint256"
            },
            {
              "internalType": "address",
              "name": "author",
              "type": "address"
            },
            {
              "internalType": "uint256",
              "name": "timestamp",
              "type": "uint256"
            },
            {
              "internalType": "string",
              "name": "title",
              "type": "string"
            },
            {
              "internalType": "string",
              "name": "description",
              "type": "string"
            },
            {
              "components": [
                {
                  "internalType": "uint256",
                  "name": "id",
                  "type": "uint256"
                },
                {
                  "internalType": "string",
                  "name": "text",
                  "type": "string"
                },
                {
                  "internalType": "uint256",
                  "name": "votes",
                  "type": "uint256"
                }
              ],
              "internalType": "struct BallotPortal.Proposal[]",
              "name": "proposals",
              "type": "tuple[]"
            },
            {
              "internalType": "bool",
              "name": "disabled",
              "type": "bool"
            },
            {
              "internalType": "bool",
              "name": "deleted",
              "type": "bool"
            }
          ],
          "internalType": "struct BallotPortal.Ballot[]",
          "name": "",
          "type": "tuple[]"
        }
      ],
      "stateMutability": "view",
      "type": "function"
    },
    {
      "inputs": [],
      "name": "getTotalBallots",
      "outputs": [
        {
          "internalType": "uint256",
          "name": "",
          "type": "uint256"
        }
      ],
      "stateMutability": "view",
      "type": "function"
    },
    {
      "inputs": [
        {
          "internalType": "uint256",
          "name": "ballotIndex",
          "type": "uint256"
        },
        {
          "internalType": "uint256",
          "name": "proposalIndex",
          "type": "uint256"
        }
      ],
      "name": "vote",
      "outputs": [
        {
          "components": [
            {
              "internalType": "uint256",
              "name": "id",
              "type": "uint256"
            },
            {
              "internalType": "address",
              "name": "author",
              "type": "address"
            },
            {
              "internalType": "uint256",
              "name": "timestamp",
              "type": "uint256"
            },
            {
              "internalType": "string",
              "name": "title",
              "type": "string"
            },
            {
              "internalType": "string",
              "name": "description",
              "type": "string"
            },
            {
              "components": [
                {
                  "internalType": "uint256",
                  "name": "id",
                  "type": "uint256"
                },
                {
                  "internalType": "string",
                  "name": "text",
                  "type": "string"
                },
                {
                  "internalType": "uint256",
                  "name": "votes",
                  "type": "uint256"
                }
              ],
              "internalType": "struct BallotPortal.Proposal[]",
              "name": "proposals",
              "type": "tuple[]"
            },
            {
              "internalType": "bool",
              "name": "disabled",
              "type": "bool"
            },
            {
              "internalType": "bool",
              "name": "deleted",
              "type": "bool"
            }
          ],
          "internalType": "struct BallotPortal.Ballot",
          "name": "",
          "type": "tuple"
        }
      ],
      "stateMutability": "nonpayable",
      "type": "function"
    }
  ],
  "bytecode": "0x60806040523480156200001157600080fd5b506200005d6040518060400160405280601581526020017f42616c6c6f7420536d61727420436f6e747261637400000000000000000000008152506200006360201b6200131f1760201c565b620001f7565b62000103816040516024016200007a919062000170565b6040516020818303038152906040527f41304fac000000000000000000000000000000000000000000000000000000007bffffffffffffffffffffffffffffffffffffffffffffffffffffffff19166020820180517bffffffffffffffffffffffffffffffffffffffffffffffffffffffff83818316178352505050506200010660201b60201c565b50565b60008151905060006a636f6e736f6c652e6c6f679050602083016000808483855afa5050505050565b60006200013c8262000194565b6200014881856200019f565b93506200015a818560208601620001b0565b6200016581620001e6565b840191505092915050565b600060208201905081810360008301526200018c81846200012f565b905092915050565b600081519050919050565b600082825260208201905092915050565b60005b83811015620001d0578082015181840152602081019050620001b3565b83811115620001e0576000848401525b50505050565b6000601f19601f8301169050919050565b61218f80620002076000396000f3fe608060405234801561001057600080fd5b506004361061007d5760003560e01c8063677d5a1d1161005b578063677d5a1d146100f4578063b384abef14610124578063d62d808914610154578063fcfe201c146101705761007d565b80630b8710e414610082578063317b1a33146100a05780635c632b38146100be575b600080fd5b61008a6101a0565b6040516100979190611c3a565b60405180910390f35b6100a86104c9565b6040516100b59190611d15565b60405180910390f35b6100d860048036038101906100d391906117ef565b610514565b6040516100eb9796959493929190611d30565b60405180910390f35b61010e60048036038101906101099190611818565b6106b0565b60405161011b9190611cf3565b60405180910390f35b61013e60048036038101906101399190611854565b6109ff565b60405161014b9190611cf3565b60405180910390f35b61016e60048036038101906101699190611758565b610d9b565b005b61018a60048036038101906101859190611818565b610fd0565b6040516101979190611cf3565b60405180910390f35b60606002805480602002602001604051908101604052809291908181526020016000905b828210156104c0578382906000526020600020906007020160405180610100016040529081600082015481526020016001820160009054906101000a900473ffffffffffffffffffffffffffffffffffffffff1673ffffffffffffffffffffffffffffffffffffffff1673ffffffffffffffffffffffffffffffffffffffff1681526020016002820154815260200160038201805461026290611fed565b80601f016020809104026020016040519081016040528092919081815260200182805461028e90611fed565b80156102db5780601f106102b0576101008083540402835291602001916102db565b820191906000526020600020905b8154815290600101906020018083116102be57829003601f168201915b505050505081526020016004820180546102f490611fed565b80601f016020809104026020016040519081016040528092919081815260200182805461032090611fed565b801561036d5780601f106103425761010080835404028352916020019161036d565b820191906000526020600020905b81548152906001019060200180831161035057829003601f168201915b5050505050815260200160058201805480602002602001604051908101604052809291908181526020016000905b828210156104735783829060005260206000209060030201604051806060016040529081600082015481526020016001820180546103d890611fed565b80601f016020809104026020016040519081016040528092919081815260200182805461040490611fed565b80156104515780601f1061042657610100808354040283529160200191610451565b820191906000526020600020905b81548152906001019060200180831161043457829003601f168201915b505050505081526020016002820154815250508152602001906001019061039b565b5050505081526020016006820160009054906101000a900460ff161515151581526020016006820160019054906101000a900460ff161515151581525050815260200190600101906101c4565b50505050905090565b600061050c6040518060400160405280601a81526020017f54656d6f732025642062616c6c6f7473206e6f20746f74616c210000000000008152506000546113b8565b600054905090565b6002818154811061052457600080fd5b90600052602060002090600702016000915090508060000154908060010160009054906101000a900473ffffffffffffffffffffffffffffffffffffffff169080600201549080600301805461057990611fed565b80601f01602080910402602001604051908101604052809291908181526020018280546105a590611fed565b80156105f25780601f106105c7576101008083540402835291602001916105f2565b820191906000526020600020905b8154815290600101906020018083116105d557829003601f168201915b50505050509080600401805461060790611fed565b80601f016020809104026020016040519081016040528092919081815260200182805461063390611fed565b80156106805780601f1061065557610100808354040283529160200191610680565b820191906000526020600020905b81548152906001019060200180831161066357829003601f168201915b5050505050908060060160009054906101000a900460ff16908060060160019054906101000a900460ff16905087565b6106b861151c565b6000600284815481106106f4577f4e487b7100000000000000000000000000000000000000000000000000000000600052603260045260246000fd5b90600052602060002090600702019050828160060160006101000a81548160ff0219169083151502179055508060405180610100016040529081600082015481526020016001820160009054906101000a900473ffffffffffffffffffffffffffffffffffffffff1673ffffffffffffffffffffffffffffffffffffffff1673ffffffffffffffffffffffffffffffffffffffff168152602001600282015481526020016003820180546107a790611fed565b80601f01602080910402602001604051908101604052809291908181526020018280546107d390611fed565b80156108205780601f106107f557610100808354040283529160200191610820565b820191906000526020600020905b81548152906001019060200180831161080357829003601f168201915b5050505050815260200160048201805461083990611fed565b80601f016020809104026020016040519081016040528092919081815260200182805461086590611fed565b80156108b25780601f10610887576101008083540402835291602001916108b2565b820191906000526020600020905b81548152906001019060200180831161089557829003601f168201915b5050505050815260200160058201805480602002602001604051908101604052809291908181526020016000905b828210156109b857838290600052602060002090600302016040518060600160405290816000820154815260200160018201805461091d90611fed565b80601f016020809104026020016040519081016040528092919081815260200182805461094990611fed565b80156109965780601f1061096b57610100808354040283529160200191610996565b820191906000526020600020905b81548152906001019060200180831161097957829003601f168201915b50505050508152602001600282015481525050815260200190600101906108e0565b5050505081526020016006820160009054906101000a900460ff161515151581526020016006820160019054906101000a900460ff16151515158152505091505092915050565b610a0761151c565b600060028481548110610a43577f4e487b7100000000000000000000000000000000000000000000000000000000600052603260045260246000fd5b906000526020600020906007020190506000816005018481548110610a91577f4e487b7100000000000000000000000000000000000000000000000000000000600052603260045260246000fd5b90600052602060002090600302019050806002016000815480929190610ab69061201f565b91905055508160405180610100016040529081600082015481526020016001820160009054906101000a900473ffffffffffffffffffffffffffffffffffffffff1673ffffffffffffffffffffffffffffffffffffffff1673ffffffffffffffffffffffffffffffffffffffff16815260200160028201548152602001600382018054610b4290611fed565b80601f0160208091040260200160405190810160405280929190818152602001828054610b6e90611fed565b8015610bbb5780601f10610b9057610100808354040283529160200191610bbb565b820191906000526020600020905b815481529060010190602001808311610b9e57829003601f168201915b50505050508152602001600482018054610bd490611fed565b80601f0160208091040260200160405190810160405280929190818152602001828054610c0090611fed565b8015610c4d5780601f10610c2257610100808354040283529160200191610c4d565b820191906000526020600020905b815481529060010190602001808311610c3057829003601f168201915b5050505050815260200160058201805480602002602001604051908101604052809291908181526020016000905b82821015610d53578382906000526020600020906003020160405180606001604052908160008201548152602001600182018054610cb890611fed565b80601f0160208091040260200160405190810160405280929190818152602001828054610ce490611fed565b8015610d315780601f10610d0657610100808354040283529160200191610d31565b820191906000526020600020905b815481529060010190602001808311610d1457829003601f168201915b5050505050815260200160028201548152505081526020019060010190610c7b565b5050505081526020016006820160009054906101000a900460ff161515151581526020016006820160019054906101000a900460ff1615151515815250509250505092915050565b6001600080828254610dad9190611ed9565b925050819055506001806000828254610dc69190611ed9565b92505081905550610df0604051806060016040528060258152602001612135602591393385611454565b60006002600181600181540180825580915050039060005260206000209060070201905060018054610e229190611f2f565b8160000181905550338160010160006101000a81548173ffffffffffffffffffffffffffffffffffffffff021916908373ffffffffffffffffffffffffffffffffffffffff16021790555042816002018190555083816003019080519060200190610e8e92919061157b565b5082816004019080519060200190610ea792919061157b565b5060008160060160006101000a81548160ff02191690831515021790555060008160060160016101000a81548160ff02191690831515021790555060005b8251811015610fc957610ef6611601565b81816000018181525050838281518110610f39577f4e487b7100000000000000000000000000000000000000000000000000000000600052603260045260246000fd5b60200260200101518160200181905250600081604001818152505082600501819080600181540180825580915050600190039060005260206000209060030201600090919091909150600082015181600001556020820151816001019080519060200190610fa892919061157b565b50604082015181600201555050508080610fc19061201f565b915050610ee5565b5050505050565b610fd861151c565b600060028481548110611014577f4e487b7100000000000000000000000000000000000000000000000000000000600052603260045260246000fd5b90600052602060002090600702019050828160060160016101000a81548160ff0219169083151502179055508060405180610100016040529081600082015481526020016001820160009054906101000a900473ffffffffffffffffffffffffffffffffffffffff1673ffffffffffffffffffffffffffffffffffffffff1673ffffffffffffffffffffffffffffffffffffffff168152602001600282015481526020016003820180546110c790611fed565b80601f01602080910402602001604051908101604052809291908181526020018280546110f390611fed565b80156111405780601f1061111557610100808354040283529160200191611140565b820191906000526020600020905b81548152906001019060200180831161112357829003601f168201915b5050505050815260200160048201805461115990611fed565b80601f016020809104026020016040519081016040528092919081815260200182805461118590611fed565b80156111d25780601f106111a7576101008083540402835291602001916111d2565b820191906000526020600020905b8154815290600101906020018083116111b557829003601f168201915b5050505050815260200160058201805480602002602001604051908101604052809291908181526020016000905b828210156112d857838290600052602060002090600302016040518060600160405290816000820154815260200160018201805461123d90611fed565b80601f016020809104026020016040519081016040528092919081815260200182805461126990611fed565b80156112b65780601f1061128b576101008083540402835291602001916112b6565b820191906000526020600020905b81548152906001019060200180831161129957829003601f168201915b5050505050815260200160028201548152505081526020019060010190611200565b5050505081526020016006820160009054906101000a900460ff161515151581526020016006820160019054906101000a900460ff16151515158152505091505092915050565b6113b5816040516024016113339190611c5c565b6040516020818303038152906040527f41304fac000000000000000000000000000000000000000000000000000000007bffffffffffffffffffffffffffffffffffffffffffffffffffffffff19166020820180517bffffffffffffffffffffffffffffffffffffffffffffffffffffffff83818316178352505050506114f3565b50565b61145082826040516024016113ce929190611cc3565b6040516020818303038152906040527f9710a9d0000000000000000000000000000000000000000000000000000000007bffffffffffffffffffffffffffffffffffffffffffffffffffffffff19166020820180517bffffffffffffffffffffffffffffffffffffffffffffffffffffffff83818316178352505050506114f3565b5050565b6114ee83838360405160240161146c93929190611c7e565b6040516020818303038152906040527fe0e9ad4f000000000000000000000000000000000000000000000000000000007bffffffffffffffffffffffffffffffffffffffffffffffffffffffff19166020820180517bffffffffffffffffffffffffffffffffffffffffffffffffffffffff83818316178352505050506114f3565b505050565b60008151905060006a636f6e736f6c652e6c6f679050602083016000808483855afa5050505050565b60405180610100016040528060008152602001600073ffffffffffffffffffffffffffffffffffffffff168152602001600081526020016060815260200160608152602001606081526020016000151581526020016000151581525090565b82805461158790611fed565b90600052602060002090601f0160209004810192826115a957600085556115f0565b82601f106115c257805160ff19168380011785556115f0565b828001600101855582156115f0579182015b828111156115ef5782518255916020019190600101906115d4565b5b5090506115fd9190611622565b5090565b60405180606001604052806000815260200160608152602001600081525090565b5b8082111561163b576000816000905550600101611623565b5090565b600061165261164d84611dde565b611dad565b9050808382526020820190508260005b8581101561169257813585016116788882611719565b845260208401935060208301925050600181019050611662565b5050509392505050565b60006116af6116aa84611e0a565b611dad565b9050828152602081018484840111156116c757600080fd5b6116d2848285611fab565b509392505050565b600082601f8301126116eb57600080fd5b81356116fb84826020860161163f565b91505092915050565b60008135905061171381612106565b92915050565b600082601f83011261172a57600080fd5b813561173a84826020860161169c565b91505092915050565b6000813590506117528161211d565b92915050565b60008060006060848603121561176d57600080fd5b600084013567ffffffffffffffff81111561178757600080fd5b61179386828701611719565b935050602084013567ffffffffffffffff8111156117b057600080fd5b6117bc86828701611719565b925050604084013567ffffffffffffffff8111156117d957600080fd5b6117e5868287016116da565b9150509250925092565b60006020828403121561180157600080fd5b600061180f84828501611743565b91505092915050565b6000806040838503121561182b57600080fd5b600061183985828601611743565b925050602061184a85828601611704565b9150509250929050565b6000806040838503121561186757600080fd5b600061187585828601611743565b925050602061188685828601611743565b9150509250929050565b600061189c8383611a50565b905092915050565b60006118b08383611bcc565b905092915050565b6118c181611f63565b82525050565b6118d081611f63565b82525050565b60006118e182611e5a565b6118eb8185611e95565b9350836020820285016118fd85611e3a565b8060005b85811015611939578484038952815161191a8582611890565b945061192583611e7b565b925060208a01995050600181019050611901565b50829750879550505050505092915050565b600061195682611e65565b6119608185611ea6565b93508360208202850161197285611e4a565b8060005b858110156119ae578484038952815161198f85826118a4565b945061199a83611e88565b925060208a01995050600181019050611976565b50829750879550505050505092915050565b6119c981611f75565b82525050565b6119d881611f75565b82525050565b60006119e982611e70565b6119f38185611eb7565b9350611a03818560208601611fba565b611a0c816120f5565b840191505092915050565b6000611a2282611e70565b611a2c8185611ec8565b9350611a3c818560208601611fba565b611a45816120f5565b840191505092915050565b600061010083016000830151611a696000860182611c1c565b506020830151611a7c60208601826118b8565b506040830151611a8f6040860182611c1c565b5060608301518482036060860152611aa782826119de565b91505060808301518482036080860152611ac182826119de565b91505060a083015184820360a0860152611adb828261194b565b91505060c0830151611af060c08601826119c0565b5060e0830151611b0360e08601826119c0565b508091505092915050565b600061010083016000830151611b276000860182611c1c565b506020830151611b3a60208601826118b8565b506040830151611b4d6040860182611c1c565b5060608301518482036060860152611b6582826119de565b91505060808301518482036080860152611b7f82826119de565b91505060a083015184820360a0860152611b99828261194b565b91505060c0830151611bae60c08601826119c0565b5060e0830151611bc160e08601826119c0565b508091505092915050565b6000606083016000830151611be46000860182611c1c565b5060208301518482036020860152611bfc82826119de565b9150506040830151611c116040860182611c1c565b508091505092915050565b611c2581611fa1565b82525050565b611c3481611fa1565b82525050565b60006020820190508181036000830152611c5481846118d6565b905092915050565b60006020820190508181036000830152611c768184611a17565b905092915050565b60006060820190508181036000830152611c988186611a17565b9050611ca760208301856118c7565b8181036040830152611cb98184611a17565b9050949350505050565b60006040820190508181036000830152611cdd8185611a17565b9050611cec6020830184611c2b565b9392505050565b60006020820190508181036000830152611d0d8184611b0e565b905092915050565b6000602082019050611d2a6000830184611c2b565b92915050565b600060e082019050611d45600083018a611c2b565b611d5260208301896118c7565b611d5f6040830188611c2b565b8181036060830152611d718187611a17565b90508181036080830152611d858186611a17565b9050611d9460a08301856119cf565b611da160c08301846119cf565b98975050505050505050565b6000604051905081810181811067ffffffffffffffff82111715611dd457611dd36120c6565b5b8060405250919050565b600067ffffffffffffffff821115611df957611df86120c6565b5b602082029050602081019050919050565b600067ffffffffffffffff821115611e2557611e246120c6565b5b601f19601f8301169050602081019050919050565b6000819050602082019050919050565b6000819050602082019050919050565b600081519050919050565b600081519050919050565b600081519050919050565b6000602082019050919050565b6000602082019050919050565b600082825260208201905092915050565b600082825260208201905092915050565b600082825260208201905092915050565b600082825260208201905092915050565b6000611ee482611fa1565b9150611eef83611fa1565b9250827fffffffffffffffffffffffffffffffffffffffffffffffffffffffffffffffff03821115611f2457611f23612068565b5b828201905092915050565b6000611f3a82611fa1565b9150611f4583611fa1565b925082821015611f5857611f57612068565b5b828203905092915050565b6000611f6e82611f81565b9050919050565b60008115159050919050565b600073ffffffffffffffffffffffffffffffffffffffff82169050919050565b6000819050919050565b82818337600083830152505050565b60005b83811015611fd8578082015181840152602081019050611fbd565b83811115611fe7576000848401525b50505050565b6000600282049050600182168061200557607f821691505b6020821081141561201957612018612097565b5b50919050565b600061202a82611fa1565b91507fffffffffffffffffffffffffffffffffffffffffffffffffffffffffffffffff82141561205d5761205c612068565b5b600182019050919050565b7f4e487b7100000000000000000000000000000000000000000000000000000000600052601160045260246000fd5b7f4e487b7100000000000000000000000000000000000000000000000000000000600052602260045260246000fd5b7f4e487b7100000000000000000000000000000000000000000000000000000000600052604160045260246000fd5b6000601f19601f8301169050919050565b61210f81611f75565b811461211a57600080fd5b50565b61212681611fa1565b811461213157600080fd5b5056fe2573206372696f7520756d6120766f746163616f20636f6d206f20746974756c6f3a202573a26469706673582212201d94eb1fa8c2da1e038f95bbaa31b7fce60bdd49a456e8d711532cee19b07cf564736f6c63430008000033",
  "linkReferences": {},
  "deployedLinkReferences": {}
}