{
  "_format": "hh-sol-artifact-1",
  "contractName": "BallotPortal",
  "sourceName": "contracts/BallotPortal.sol",
  "abi": [
    {
      "inputs": [],
      "stateMutability": "nonpayable",
      "type": "constructor"
    },
    {
      "anonymous": false,
      "inputs": [
        {
          "components": [
            {
              "internalType": "address",
              "name": "author",
              "type": "address"
            },
            {
              "internalType": "uint256",
              "name": "timestamp",
              "type": "uint256"
            },
            {
              "internalType": "string",
              "name": "title",
              "type": "string"
            },
            {
              "internalType": "string",
              "name": "description",
              "type": "string"
            }
          ],
          "indexed": false,
          "internalType": "struct BallotPortal.Ballot",
          "name": "_ballot",
          "type": "tuple"
        }
      ],
      "name": "NewBallot",
      "type": "event"
    },
    {
      "inputs": [
        {
          "internalType": "string",
          "name": "_title",
          "type": "string"
        },
        {
          "internalType": "string",
          "name": "_description",
          "type": "string"
        }
      ],
      "name": "createBallot",
      "outputs": [
        {
          "components": [
            {
              "internalType": "address",
              "name": "author",
              "type": "address"
            },
            {
              "internalType": "uint256",
              "name": "timestamp",
              "type": "uint256"
            },
            {
              "internalType": "string",
              "name": "title",
              "type": "string"
            },
            {
              "internalType": "string",
              "name": "description",
              "type": "string"
            }
          ],
          "internalType": "struct BallotPortal.Ballot",
          "name": "",
          "type": "tuple"
        }
      ],
      "stateMutability": "nonpayable",
      "type": "function"
    },
    {
      "inputs": [],
      "name": "getAllBallots",
      "outputs": [
        {
          "components": [
            {
              "internalType": "address",
              "name": "author",
              "type": "address"
            },
            {
              "internalType": "uint256",
              "name": "timestamp",
              "type": "uint256"
            },
            {
              "internalType": "string",
              "name": "title",
              "type": "string"
            },
            {
              "internalType": "string",
              "name": "description",
              "type": "string"
            }
          ],
          "internalType": "struct BallotPortal.Ballot[]",
          "name": "",
          "type": "tuple[]"
        }
      ],
      "stateMutability": "view",
      "type": "function"
    },
    {
      "inputs": [],
      "name": "getTotalBallots",
      "outputs": [
        {
          "internalType": "uint256",
          "name": "",
          "type": "uint256"
        }
      ],
      "stateMutability": "view",
      "type": "function"
    }
  ],
  "bytecode": "0x60806040523480156200001157600080fd5b506200005d6040518060400160405280601581526020017f42616c6c6f7420536d61727420436f6e747261637400000000000000000000008152506200006360201b620004221760201c565b620001f7565b62000103816040516024016200007a919062000170565b6040516020818303038152906040527f41304fac000000000000000000000000000000000000000000000000000000007bffffffffffffffffffffffffffffffffffffffffffffffffffffffff19166020820180517bffffffffffffffffffffffffffffffffffffffffffffffffffffffff83818316178352505050506200010660201b60201c565b50565b60008151905060006a636f6e736f6c652e6c6f679050602083016000808483855afa5050505050565b60006200013c8262000194565b6200014881856200019f565b93506200015a818560208601620001b0565b6200016581620001e6565b840191505092915050565b600060208201905081810360008301526200018c81846200012f565b905092915050565b600081519050919050565b600082825260208201905092915050565b60005b83811015620001d0578082015181840152602081019050620001b3565b83811115620001e0576000848401525b50505050565b6000601f19601f8301169050919050565b610d9b80620002076000396000f3fe608060405234801561001057600080fd5b50600436106100415760003560e01c80630b8710e414610046578063317b1a33146100645780636fa4f10314610082575b600080fd5b61004e6100b2565b60405161005b91906109df565b60405180910390f35b61006c610295565b6040516100799190610aba565b60405180910390f35b61009c60048036038101906100979190610768565b6102e0565b6040516100a99190610a98565b60405180910390f35b60606001805480602002602001604051908101604052809291908181526020016000905b8282101561028c57838290600052602060002090600402016040518060800160405290816000820160009054906101000a900473ffffffffffffffffffffffffffffffffffffffff1673ffffffffffffffffffffffffffffffffffffffff1673ffffffffffffffffffffffffffffffffffffffff1681526020016001820154815260200160028201805461016990610c70565b80601f016020809104026020016040519081016040528092919081815260200182805461019590610c70565b80156101e25780601f106101b7576101008083540402835291602001916101e2565b820191906000526020600020905b8154815290600101906020018083116101c557829003601f168201915b505050505081526020016003820180546101fb90610c70565b80601f016020809104026020016040519081016040528092919081815260200182805461022790610c70565b80156102745780601f1061024957610100808354040283529160200191610274565b820191906000526020600020905b81548152906001019060200180831161025757829003601f168201915b505050505081525050815260200190600101906100d6565b50505050905090565b60006102d86040518060400160405280601e81526020017f54656d6f732025642074636861757a696e686f73206e6f20746f74616c2100008152506000546104bb565b600054905090565b6102e861061f565b60016000808282546102fa9190610b9c565b92505081905550610324604051806060016040528060258152602001610d41602591393385610557565b600060405180608001604052803373ffffffffffffffffffffffffffffffffffffffff168152602001428152602001858152602001848152509050600181908060018154018082558091505060019003906000526020600020906004020160009091909190915060008201518160000160006101000a81548173ffffffffffffffffffffffffffffffffffffffff021916908373ffffffffffffffffffffffffffffffffffffffff1602179055506020820151816001015560408201518160020190805190602001906103f892919061065d565b50606082015181600301908051906020019061041592919061065d565b5050508091505092915050565b6104b8816040516024016104369190610a01565b6040516020818303038152906040527f41304fac000000000000000000000000000000000000000000000000000000007bffffffffffffffffffffffffffffffffffffffffffffffffffffffff19166020820180517bffffffffffffffffffffffffffffffffffffffffffffffffffffffff83818316178352505050506105f6565b50565b61055382826040516024016104d1929190610a68565b6040516020818303038152906040527f9710a9d0000000000000000000000000000000000000000000000000000000007bffffffffffffffffffffffffffffffffffffffffffffffffffffffff19166020820180517bffffffffffffffffffffffffffffffffffffffffffffffffffffffff83818316178352505050506105f6565b5050565b6105f183838360405160240161056f93929190610a23565b6040516020818303038152906040527fe0e9ad4f000000000000000000000000000000000000000000000000000000007bffffffffffffffffffffffffffffffffffffffffffffffffffffffff19166020820180517bffffffffffffffffffffffffffffffffffffffffffffffffffffffff83818316178352505050506105f6565b505050565b60008151905060006a636f6e736f6c652e6c6f679050602083016000808483855afa5050505050565b6040518060800160405280600073ffffffffffffffffffffffffffffffffffffffff1681526020016000815260200160608152602001606081525090565b82805461066990610c70565b90600052602060002090601f01602090048101928261068b57600085556106d2565b82601f106106a457805160ff19168380011785556106d2565b828001600101855582156106d2579182015b828111156106d15782518255916020019190600101906106b6565b5b5090506106df91906106e3565b5090565b5b808211156106fc5760008160009055506001016106e4565b5090565b600061071361070e84610b06565b610ad5565b90508281526020810184848401111561072b57600080fd5b610736848285610c2e565b509392505050565b600082601f83011261074f57600080fd5b813561075f848260208601610700565b91505092915050565b6000806040838503121561077b57600080fd5b600083013567ffffffffffffffff81111561079557600080fd5b6107a18582860161073e565b925050602083013567ffffffffffffffff8111156107be57600080fd5b6107ca8582860161073e565b9150509250929050565b60006107e083836108ed565b905092915050565b6107f181610bf2565b82525050565b61080081610bf2565b82525050565b600061081182610b46565b61081b8185610b69565b93508360208202850161082d85610b36565b8060005b85811015610869578484038952815161084a85826107d4565b945061085583610b5c565b925060208a01995050600181019050610831565b50829750879550505050505092915050565b600061088682610b51565b6108908185610b7a565b93506108a0818560208601610c3d565b6108a981610d2f565b840191505092915050565b60006108bf82610b51565b6108c98185610b8b565b93506108d9818560208601610c3d565b6108e281610d2f565b840191505092915050565b600060808301600083015161090560008601826107e8565b50602083015161091860208601826109c1565b5060408301518482036040860152610930828261087b565b9150506060830151848203606086015261094a828261087b565b9150508091505092915050565b600060808301600083015161096f60008601826107e8565b50602083015161098260208601826109c1565b506040830151848203604086015261099a828261087b565b915050606083015184820360608601526109b4828261087b565b9150508091505092915050565b6109ca81610c24565b82525050565b6109d981610c24565b82525050565b600060208201905081810360008301526109f98184610806565b905092915050565b60006020820190508181036000830152610a1b81846108b4565b905092915050565b60006060820190508181036000830152610a3d81866108b4565b9050610a4c60208301856107f7565b8181036040830152610a5e81846108b4565b9050949350505050565b60006040820190508181036000830152610a8281856108b4565b9050610a9160208301846109d0565b9392505050565b60006020820190508181036000830152610ab28184610957565b905092915050565b6000602082019050610acf60008301846109d0565b92915050565b6000604051905081810181811067ffffffffffffffff82111715610afc57610afb610d00565b5b8060405250919050565b600067ffffffffffffffff821115610b2157610b20610d00565b5b601f19601f8301169050602081019050919050565b6000819050602082019050919050565b600081519050919050565b600081519050919050565b6000602082019050919050565b600082825260208201905092915050565b600082825260208201905092915050565b600082825260208201905092915050565b6000610ba782610c24565b9150610bb283610c24565b9250827fffffffffffffffffffffffffffffffffffffffffffffffffffffffffffffffff03821115610be757610be6610ca2565b5b828201905092915050565b6000610bfd82610c04565b9050919050565b600073ffffffffffffffffffffffffffffffffffffffff82169050919050565b6000819050919050565b82818337600083830152505050565b60005b83811015610c5b578082015181840152602081019050610c40565b83811115610c6a576000848401525b50505050565b60006002820490506001821680610c8857607f821691505b60208210811415610c9c57610c9b610cd1565b5b50919050565b7f4e487b7100000000000000000000000000000000000000000000000000000000600052601160045260246000fd5b7f4e487b7100000000000000000000000000000000000000000000000000000000600052602260045260246000fd5b7f4e487b7100000000000000000000000000000000000000000000000000000000600052604160045260246000fd5b6000601f19601f830116905091905056fe2573206372696f7520756d6120766f746163616f20636f6d206f20746974756c6f3a202573a2646970667358221220d9f267144ec02e14ed8e53c759563b13680c868e4114f19184ee46a118330a2964736f6c63430008000033",
  "linkReferences": {},
  "deployedLinkReferences": {}
}