{
  "_format": "hh-sol-artifact-1",
  "contractName": "BallotPortal",
  "sourceName": "contracts/BallotPortal.sol",
  "abi": [
    {
      "inputs": [],
      "stateMutability": "nonpayable",
      "type": "constructor"
    },
    {
      "anonymous": false,
      "inputs": [
        {
          "components": [
            {
              "internalType": "address",
              "name": "author",
              "type": "address"
            },
            {
              "internalType": "uint256",
              "name": "timestamp",
              "type": "uint256"
            },
            {
              "internalType": "string",
              "name": "title",
              "type": "string"
            },
            {
              "internalType": "string",
              "name": "description",
              "type": "string"
            },
            {
              "internalType": "string[]",
              "name": "proposals",
              "type": "string[]"
            }
          ],
          "indexed": false,
          "internalType": "struct BallotPortal.Ballot",
          "name": "_ballot",
          "type": "tuple"
        }
      ],
      "name": "NewBallot",
      "type": "event"
    },
    {
      "inputs": [
        {
          "internalType": "string",
          "name": "_title",
          "type": "string"
        },
        {
          "internalType": "string",
          "name": "_description",
          "type": "string"
        },
        {
          "internalType": "string[]",
          "name": "_texts",
          "type": "string[]"
        }
      ],
      "name": "createBallot",
      "outputs": [
        {
          "components": [
            {
              "internalType": "address",
              "name": "author",
              "type": "address"
            },
            {
              "internalType": "uint256",
              "name": "timestamp",
              "type": "uint256"
            },
            {
              "internalType": "string",
              "name": "title",
              "type": "string"
            },
            {
              "internalType": "string",
              "name": "description",
              "type": "string"
            },
            {
              "internalType": "string[]",
              "name": "proposals",
              "type": "string[]"
            }
          ],
          "internalType": "struct BallotPortal.Ballot",
          "name": "",
          "type": "tuple"
        }
      ],
      "stateMutability": "nonpayable",
      "type": "function"
    },
    {
      "inputs": [],
      "name": "getAllBallots",
      "outputs": [
        {
          "components": [
            {
              "internalType": "address",
              "name": "author",
              "type": "address"
            },
            {
              "internalType": "uint256",
              "name": "timestamp",
              "type": "uint256"
            },
            {
              "internalType": "string",
              "name": "title",
              "type": "string"
            },
            {
              "internalType": "string",
              "name": "description",
              "type": "string"
            },
            {
              "internalType": "string[]",
              "name": "proposals",
              "type": "string[]"
            }
          ],
          "internalType": "struct BallotPortal.Ballot[]",
          "name": "",
          "type": "tuple[]"
        }
      ],
      "stateMutability": "view",
      "type": "function"
    },
    {
      "inputs": [],
      "name": "getTotalBallots",
      "outputs": [
        {
          "internalType": "uint256",
          "name": "",
          "type": "uint256"
        }
      ],
      "stateMutability": "view",
      "type": "function"
    }
  ],
  "bytecode": "0x60806040523480156200001157600080fd5b506200005d6040518060400160405280601581526020017f42616c6c6f7420536d61727420436f6e747261637400000000000000000000008152506200006360201b6200051f1760201c565b620001f7565b62000103816040516024016200007a919062000170565b6040516020818303038152906040527f41304fac000000000000000000000000000000000000000000000000000000007bffffffffffffffffffffffffffffffffffffffffffffffffffffffff19166020820180517bffffffffffffffffffffffffffffffffffffffffffffffffffffffff83818316178352505050506200010660201b60201c565b50565b60008151905060006a636f6e736f6c652e6c6f679050602083016000808483855afa5050505050565b60006200013c8262000194565b6200014881856200019f565b93506200015a818560208601620001b0565b6200016581620001e6565b840191505092915050565b600060208201905081810360008301526200018c81846200012f565b905092915050565b600081519050919050565b600082825260208201905092915050565b60005b83811015620001d0578082015181840152602081019050620001b3565b83811115620001e0576000848401525b50505050565b6000601f19601f8301169050919050565b61113780620002076000396000f3fe608060405234801561001057600080fd5b50600436106100415760003560e01c80630b8710e414610046578063317b1a3314610064578063d62d808914610082575b600080fd5b61004e6100b2565b60405161005b9190610d16565b60405180910390f35b61006c61036e565b6040516100799190610df1565b60405180910390f35b61009c600480360381019061009791906109b7565b6103b9565b6040516100a99190610dcf565b60405180910390f35b60606002805480602002602001604051908101604052809291908181526020016000905b8282101561036557838290600052602060002090600502016040518060a00160405290816000820160009054906101000a900473ffffffffffffffffffffffffffffffffffffffff1673ffffffffffffffffffffffffffffffffffffffff1673ffffffffffffffffffffffffffffffffffffffff168152602001600182015481526020016002820180546101699061100c565b80601f01602080910402602001604051908101604052809291908181526020018280546101959061100c565b80156101e25780601f106101b7576101008083540402835291602001916101e2565b820191906000526020600020905b8154815290600101906020018083116101c557829003601f168201915b505050505081526020016003820180546101fb9061100c565b80601f01602080910402602001604051908101604052809291908181526020018280546102279061100c565b80156102745780601f1061024957610100808354040283529160200191610274565b820191906000526020600020905b81548152906001019060200180831161025757829003601f168201915b5050505050815260200160048201805480602002602001604051908101604052809291908181526020016000905b8282101561034e5783829060005260206000200180546102c19061100c565b80601f01602080910402602001604051908101604052809291908181526020018280546102ed9061100c565b801561033a5780601f1061030f5761010080835404028352916020019161033a565b820191906000526020600020905b81548152906001019060200180831161031d57829003601f168201915b5050505050815260200190600101906102a2565b5050505081525050815260200190600101906100d6565b50505050905090565b60006103b16040518060400160405280601e81526020017f54656d6f732025642074636861757a696e686f73206e6f20746f74616c2100008152506000546105b8565b600054905090565b6103c161071c565b60016000808282546103d39190610f38565b925050819055506103fd6040518060600160405280602581526020016110dd602591393386610654565b60006040518060a001604052803373ffffffffffffffffffffffffffffffffffffffff168152602001428152602001868152602001858152602001848152509050600281908060018154018082558091505060019003906000526020600020906005020160009091909190915060008201518160000160006101000a81548173ffffffffffffffffffffffffffffffffffffffff021916908373ffffffffffffffffffffffffffffffffffffffff1602179055506020820151816001015560408201518160020190805190602001906104d7929190610761565b5060608201518160030190805190602001906104f4929190610761565b5060808201518160040190805190602001906105119291906107e7565b505050809150509392505050565b6105b5816040516024016105339190610d38565b6040516020818303038152906040527f41304fac000000000000000000000000000000000000000000000000000000007bffffffffffffffffffffffffffffffffffffffffffffffffffffffff19166020820180517bffffffffffffffffffffffffffffffffffffffffffffffffffffffff83818316178352505050506106f3565b50565b61065082826040516024016105ce929190610d9f565b6040516020818303038152906040527f9710a9d0000000000000000000000000000000000000000000000000000000007bffffffffffffffffffffffffffffffffffffffffffffffffffffffff19166020820180517bffffffffffffffffffffffffffffffffffffffffffffffffffffffff83818316178352505050506106f3565b5050565b6106ee83838360405160240161066c93929190610d5a565b6040516020818303038152906040527fe0e9ad4f000000000000000000000000000000000000000000000000000000007bffffffffffffffffffffffffffffffffffffffffffffffffffffffff19166020820180517bffffffffffffffffffffffffffffffffffffffffffffffffffffffff83818316178352505050506106f3565b505050565b60008151905060006a636f6e736f6c652e6c6f679050602083016000808483855afa5050505050565b6040518060a00160405280600073ffffffffffffffffffffffffffffffffffffffff168152602001600081526020016060815260200160608152602001606081525090565b82805461076d9061100c565b90600052602060002090601f01602090048101928261078f57600085556107d6565b82601f106107a857805160ff19168380011785556107d6565b828001600101855582156107d6579182015b828111156107d55782518255916020019190600101906107ba565b5b5090506107e39190610847565b5090565b828054828255906000526020600020908101928215610836579160200282015b82811115610835578251829080519060200190610825929190610761565b5091602001919060010190610807565b5b5090506108439190610864565b5090565b5b80821115610860576000816000905550600101610848565b5090565b5b80821115610884576000818161087b9190610888565b50600101610865565b5090565b5080546108949061100c565b6000825580601f106108a657506108c5565b601f0160209004906000526020600020908101906108c49190610847565b5b50565b60006108db6108d684610e3d565b610e0c565b9050808382526020820190508260005b8581101561091b5781358501610901888261098d565b8452602084019350602083019250506001810190506108eb565b5050509392505050565b600061093861093384610e69565b610e0c565b90508281526020810184848401111561095057600080fd5b61095b848285610fca565b509392505050565b600082601f83011261097457600080fd5b81356109848482602086016108c8565b91505092915050565b600082601f83011261099e57600080fd5b81356109ae848260208601610925565b91505092915050565b6000806000606084860312156109cc57600080fd5b600084013567ffffffffffffffff8111156109e657600080fd5b6109f28682870161098d565b935050602084013567ffffffffffffffff811115610a0f57600080fd5b610a1b8682870161098d565b925050604084013567ffffffffffffffff811115610a3857600080fd5b610a4486828701610963565b9150509250925092565b6000610a5a8383610b7e565b905092915050565b6000610a6e8383610bf0565b905092915050565b610a7f81610f8e565b82525050565b610a8e81610f8e565b82525050565b6000610a9f82610eb9565b610aa98185610ef4565b935083602082028501610abb85610e99565b8060005b85811015610af75784840389528151610ad88582610a4e565b9450610ae383610eda565b925060208a01995050600181019050610abf565b50829750879550505050505092915050565b6000610b1482610ec4565b610b1e8185610f05565b935083602082028501610b3085610ea9565b8060005b85811015610b6c5784840389528151610b4d8582610a62565b9450610b5883610ee7565b925060208a01995050600181019050610b34565b50829750879550505050505092915050565b6000610b8982610ecf565b610b938185610f16565b9350610ba3818560208601610fd9565b610bac816110cb565b840191505092915050565b6000610bc282610ecf565b610bcc8185610f27565b9350610bdc818560208601610fd9565b610be5816110cb565b840191505092915050565b600060a083016000830151610c086000860182610a76565b506020830151610c1b6020860182610cf8565b5060408301518482036040860152610c338282610b7e565b91505060608301518482036060860152610c4d8282610b7e565b91505060808301518482036080860152610c678282610a94565b9150508091505092915050565b600060a083016000830151610c8c6000860182610a76565b506020830151610c9f6020860182610cf8565b5060408301518482036040860152610cb78282610b7e565b91505060608301518482036060860152610cd18282610b7e565b91505060808301518482036080860152610ceb8282610a94565b9150508091505092915050565b610d0181610fc0565b82525050565b610d1081610fc0565b82525050565b60006020820190508181036000830152610d308184610b09565b905092915050565b60006020820190508181036000830152610d528184610bb7565b905092915050565b60006060820190508181036000830152610d748186610bb7565b9050610d836020830185610a85565b8181036040830152610d958184610bb7565b9050949350505050565b60006040820190508181036000830152610db98185610bb7565b9050610dc86020830184610d07565b9392505050565b60006020820190508181036000830152610de98184610c74565b905092915050565b6000602082019050610e066000830184610d07565b92915050565b6000604051905081810181811067ffffffffffffffff82111715610e3357610e3261109c565b5b8060405250919050565b600067ffffffffffffffff821115610e5857610e5761109c565b5b602082029050602081019050919050565b600067ffffffffffffffff821115610e8457610e8361109c565b5b601f19601f8301169050602081019050919050565b6000819050602082019050919050565b6000819050602082019050919050565b600081519050919050565b600081519050919050565b600081519050919050565b6000602082019050919050565b6000602082019050919050565b600082825260208201905092915050565b600082825260208201905092915050565b600082825260208201905092915050565b600082825260208201905092915050565b6000610f4382610fc0565b9150610f4e83610fc0565b9250827fffffffffffffffffffffffffffffffffffffffffffffffffffffffffffffffff03821115610f8357610f8261103e565b5b828201905092915050565b6000610f9982610fa0565b9050919050565b600073ffffffffffffffffffffffffffffffffffffffff82169050919050565b6000819050919050565b82818337600083830152505050565b60005b83811015610ff7578082015181840152602081019050610fdc565b83811115611006576000848401525b50505050565b6000600282049050600182168061102457607f821691505b602082108114156110385761103761106d565b5b50919050565b7f4e487b7100000000000000000000000000000000000000000000000000000000600052601160045260246000fd5b7f4e487b7100000000000000000000000000000000000000000000000000000000600052602260045260246000fd5b7f4e487b7100000000000000000000000000000000000000000000000000000000600052604160045260246000fd5b6000601f19601f830116905091905056fe2573206372696f7520756d6120766f746163616f20636f6d206f20746974756c6f3a202573a26469706673582212209126463229fc7981befcbdc4920d526223eb40c9097edd31e97e4d9fd84cdd6364736f6c63430008000033",
  "linkReferences": {},
  "deployedLinkReferences": {}
}