{
  "_format": "hh-sol-artifact-1",
  "contractName": "BallotPortal",
  "sourceName": "contracts/BallotPortal.sol",
  "abi": [
    {
      "inputs": [],
      "stateMutability": "nonpayable",
      "type": "constructor"
    },
    {
      "anonymous": false,
      "inputs": [
        {
          "components": [
            {
              "internalType": "uint256",
              "name": "id",
              "type": "uint256"
            },
            {
              "internalType": "address",
              "name": "author",
              "type": "address"
            },
            {
              "internalType": "uint256",
              "name": "timestamp",
              "type": "uint256"
            },
            {
              "internalType": "string",
              "name": "title",
              "type": "string"
            },
            {
              "internalType": "string",
              "name": "description",
              "type": "string"
            },
            {
              "internalType": "string[]",
              "name": "proposals",
              "type": "string[]"
            },
            {
              "internalType": "bool",
              "name": "deleted",
              "type": "bool"
            }
          ],
          "indexed": false,
          "internalType": "struct BallotPortal.Ballot",
          "name": "_ballot",
          "type": "tuple"
        }
      ],
      "name": "NewBallot",
      "type": "event"
    },
    {
      "inputs": [
        {
          "internalType": "string",
          "name": "_title",
          "type": "string"
        },
        {
          "internalType": "string",
          "name": "_description",
          "type": "string"
        },
        {
          "internalType": "string[]",
          "name": "_texts",
          "type": "string[]"
        }
      ],
      "name": "createBallot",
      "outputs": [
        {
          "components": [
            {
              "internalType": "uint256",
              "name": "id",
              "type": "uint256"
            },
            {
              "internalType": "address",
              "name": "author",
              "type": "address"
            },
            {
              "internalType": "uint256",
              "name": "timestamp",
              "type": "uint256"
            },
            {
              "internalType": "string",
              "name": "title",
              "type": "string"
            },
            {
              "internalType": "string",
              "name": "description",
              "type": "string"
            },
            {
              "internalType": "string[]",
              "name": "proposals",
              "type": "string[]"
            },
            {
              "internalType": "bool",
              "name": "deleted",
              "type": "bool"
            }
          ],
          "internalType": "struct BallotPortal.Ballot",
          "name": "",
          "type": "tuple"
        }
      ],
      "stateMutability": "nonpayable",
      "type": "function"
    },
    {
      "inputs": [
        {
          "internalType": "uint256",
          "name": "id",
          "type": "uint256"
        },
        {
          "internalType": "bool",
          "name": "newValue",
          "type": "bool"
        }
      ],
      "name": "deleteBallot",
      "outputs": [
        {
          "components": [
            {
              "internalType": "uint256",
              "name": "id",
              "type": "uint256"
            },
            {
              "internalType": "address",
              "name": "author",
              "type": "address"
            },
            {
              "internalType": "uint256",
              "name": "timestamp",
              "type": "uint256"
            },
            {
              "internalType": "string",
              "name": "title",
              "type": "string"
            },
            {
              "internalType": "string",
              "name": "description",
              "type": "string"
            },
            {
              "internalType": "string[]",
              "name": "proposals",
              "type": "string[]"
            },
            {
              "internalType": "bool",
              "name": "deleted",
              "type": "bool"
            }
          ],
          "internalType": "struct BallotPortal.Ballot",
          "name": "",
          "type": "tuple"
        }
      ],
      "stateMutability": "nonpayable",
      "type": "function"
    },
    {
      "inputs": [],
      "name": "getAllBallots",
      "outputs": [
        {
          "components": [
            {
              "internalType": "uint256",
              "name": "id",
              "type": "uint256"
            },
            {
              "internalType": "address",
              "name": "author",
              "type": "address"
            },
            {
              "internalType": "uint256",
              "name": "timestamp",
              "type": "uint256"
            },
            {
              "internalType": "string",
              "name": "title",
              "type": "string"
            },
            {
              "internalType": "string",
              "name": "description",
              "type": "string"
            },
            {
              "internalType": "string[]",
              "name": "proposals",
              "type": "string[]"
            },
            {
              "internalType": "bool",
              "name": "deleted",
              "type": "bool"
            }
          ],
          "internalType": "struct BallotPortal.Ballot[]",
          "name": "",
          "type": "tuple[]"
        }
      ],
      "stateMutability": "view",
      "type": "function"
    },
    {
      "inputs": [],
      "name": "getTotalBallots",
      "outputs": [
        {
          "internalType": "uint256",
          "name": "",
          "type": "uint256"
        }
      ],
      "stateMutability": "view",
      "type": "function"
    }
  ],
  "bytecode": "0x60806040523480156200001157600080fd5b506200005d6040518060400160405280601581526020017f42616c6c6f7420536d61727420436f6e747261637400000000000000000000008152506200006360201b620008da1760201c565b620001f7565b62000103816040516024016200007a919062000170565b6040516020818303038152906040527f41304fac000000000000000000000000000000000000000000000000000000007bffffffffffffffffffffffffffffffffffffffffffffffffffffffff19166020820180517bffffffffffffffffffffffffffffffffffffffffffffffffffffffff83818316178352505050506200010660201b60201c565b50565b60008151905060006a636f6e736f6c652e6c6f679050602083016000808483855afa5050505050565b60006200013c8262000194565b6200014881856200019f565b93506200015a818560208601620001b0565b6200016581620001e6565b840191505092915050565b600060208201905081810360008301526200018c81846200012f565b905092915050565b600081519050919050565b600082825260208201905092915050565b60005b83811015620001d0578082015181840152602081019050620001b3565b83811115620001e0576000848401525b50505050565b6000601f19601f8301169050919050565b6115fd80620002076000396000f3fe608060405234801561001057600080fd5b506004361061004c5760003560e01c80630b8710e414610051578063317b1a331461006f578063d62d80891461008d578063fcfe201c146100bd575b600080fd5b6100596100ed565b60405161006691906111a2565b60405180910390f35b6100776103ce565b604051610084919061127d565b60405180910390f35b6100a760048036038101906100a29190610dac565b610419565b6040516100b4919061125b565b60405180910390f35b6100d760048036038101906100d29190610e43565b6105d3565b6040516100e4919061125b565b60405180910390f35b60606002805480602002602001604051908101604052809291908181526020016000905b828210156103c557838290600052602060002090600702016040518060e0016040529081600082015481526020016001820160009054906101000a900473ffffffffffffffffffffffffffffffffffffffff1673ffffffffffffffffffffffffffffffffffffffff1673ffffffffffffffffffffffffffffffffffffffff168152602001600282015481526020016003820180546101ae906114a4565b80601f01602080910402602001604051908101604052809291908181526020018280546101da906114a4565b80156102275780601f106101fc57610100808354040283529160200191610227565b820191906000526020600020905b81548152906001019060200180831161020a57829003601f168201915b50505050508152602001600482018054610240906114a4565b80601f016020809104026020016040519081016040528092919081815260200182805461026c906114a4565b80156102b95780601f1061028e576101008083540402835291602001916102b9565b820191906000526020600020905b81548152906001019060200180831161029c57829003601f168201915b5050505050815260200160058201805480602002602001604051908101604052809291908181526020016000905b82821015610393578382906000526020600020018054610306906114a4565b80601f0160208091040260200160405190810160405280929190818152602001828054610332906114a4565b801561037f5780601f106103545761010080835404028352916020019161037f565b820191906000526020600020905b81548152906001019060200180831161036257829003601f168201915b5050505050815260200190600101906102e7565b5050505081526020016006820160009054906101000a900460ff16151515158152505081526020019060010190610111565b50505050905090565b60006104116040518060400160405280601e81526020017f54656d6f732025642074636861757a696e686f73206e6f20746f74616c210000815250600054610973565b600054905090565b610421610ad7565b600160008082825461043391906113c4565b92505081905550600180600082825461044c91906113c4565b925050819055506104766040518060600160405280602581526020016115a3602591393386610a0f565b60006040518060e0016040528060015481526020013373ffffffffffffffffffffffffffffffffffffffff16815260200142815260200186815260200185815260200184815260200160001515815250905060028190806001815401808255809150506001900390600052602060002090600702016000909190919091506000820151816000015560208201518160010160006101000a81548173ffffffffffffffffffffffffffffffffffffffff021916908373ffffffffffffffffffffffffffffffffffffffff16021790555060408201518160020155606082015181600301908051906020019061056b929190610b2c565b506080820151816004019080519060200190610588929190610b2c565b5060a08201518160050190805190602001906105a5929190610bb2565b5060c08201518160060160006101000a81548160ff0219169083151502179055505050809150509392505050565b6105db610ad7565b600060028481548110610617577f4e487b7100000000000000000000000000000000000000000000000000000000600052603260045260246000fd5b90600052602060002090600702019050828160060160006101000a81548160ff021916908315150217905550806040518060e0016040529081600082015481526020016001820160009054906101000a900473ffffffffffffffffffffffffffffffffffffffff1673ffffffffffffffffffffffffffffffffffffffff1673ffffffffffffffffffffffffffffffffffffffff168152602001600282015481526020016003820180546106c9906114a4565b80601f01602080910402602001604051908101604052809291908181526020018280546106f5906114a4565b80156107425780601f1061071757610100808354040283529160200191610742565b820191906000526020600020905b81548152906001019060200180831161072557829003601f168201915b5050505050815260200160048201805461075b906114a4565b80601f0160208091040260200160405190810160405280929190818152602001828054610787906114a4565b80156107d45780601f106107a9576101008083540402835291602001916107d4565b820191906000526020600020905b8154815290600101906020018083116107b757829003601f168201915b5050505050815260200160058201805480602002602001604051908101604052809291908181526020016000905b828210156108ae578382906000526020600020018054610821906114a4565b80601f016020809104026020016040519081016040528092919081815260200182805461084d906114a4565b801561089a5780601f1061086f5761010080835404028352916020019161089a565b820191906000526020600020905b81548152906001019060200180831161087d57829003601f168201915b505050505081526020019060010190610802565b5050505081526020016006820160009054906101000a900460ff16151515158152505091505092915050565b610970816040516024016108ee91906111c4565b6040516020818303038152906040527f41304fac000000000000000000000000000000000000000000000000000000007bffffffffffffffffffffffffffffffffffffffffffffffffffffffff19166020820180517bffffffffffffffffffffffffffffffffffffffffffffffffffffffff8381831617835250505050610aae565b50565b610a0b828260405160240161098992919061122b565b6040516020818303038152906040527f9710a9d0000000000000000000000000000000000000000000000000000000007bffffffffffffffffffffffffffffffffffffffffffffffffffffffff19166020820180517bffffffffffffffffffffffffffffffffffffffffffffffffffffffff8381831617835250505050610aae565b5050565b610aa9838383604051602401610a27939291906111e6565b6040516020818303038152906040527fe0e9ad4f000000000000000000000000000000000000000000000000000000007bffffffffffffffffffffffffffffffffffffffffffffffffffffffff19166020820180517bffffffffffffffffffffffffffffffffffffffffffffffffffffffff8381831617835250505050610aae565b505050565b60008151905060006a636f6e736f6c652e6c6f679050602083016000808483855afa5050505050565b6040518060e0016040528060008152602001600073ffffffffffffffffffffffffffffffffffffffff168152602001600081526020016060815260200160608152602001606081526020016000151581525090565b828054610b38906114a4565b90600052602060002090601f016020900481019282610b5a5760008555610ba1565b82601f10610b7357805160ff1916838001178555610ba1565b82800160010185558215610ba1579182015b82811115610ba0578251825591602001919060010190610b85565b5b509050610bae9190610c12565b5090565b828054828255906000526020600020908101928215610c01579160200282015b82811115610c00578251829080519060200190610bf0929190610b2c565b5091602001919060010190610bd2565b5b509050610c0e9190610c2f565b5090565b5b80821115610c2b576000816000905550600101610c13565b5090565b5b80821115610c4f5760008181610c469190610c53565b50600101610c30565b5090565b508054610c5f906114a4565b6000825580601f10610c715750610c90565b601f016020900490600052602060002090810190610c8f9190610c12565b5b50565b6000610ca6610ca1846112c9565b611298565b9050808382526020820190508260005b85811015610ce65781358501610ccc8882610d6d565b845260208401935060208301925050600181019050610cb6565b5050509392505050565b6000610d03610cfe846112f5565b611298565b905082815260208101848484011115610d1b57600080fd5b610d26848285611462565b509392505050565b600082601f830112610d3f57600080fd5b8135610d4f848260208601610c93565b91505092915050565b600081359050610d6781611574565b92915050565b600082601f830112610d7e57600080fd5b8135610d8e848260208601610cf0565b91505092915050565b600081359050610da68161158b565b92915050565b600080600060608486031215610dc157600080fd5b600084013567ffffffffffffffff811115610ddb57600080fd5b610de786828701610d6d565b935050602084013567ffffffffffffffff811115610e0457600080fd5b610e1086828701610d6d565b925050604084013567ffffffffffffffff811115610e2d57600080fd5b610e3986828701610d2e565b9150509250925092565b60008060408385031215610e5657600080fd5b6000610e6485828601610d97565b9250506020610e7585828601610d58565b9150509250929050565b6000610e8b8383610fbe565b905092915050565b6000610e9f8383611030565b905092915050565b610eb08161141a565b82525050565b610ebf8161141a565b82525050565b6000610ed082611345565b610eda8185611380565b935083602082028501610eec85611325565b8060005b85811015610f285784840389528151610f098582610e7f565b9450610f1483611366565b925060208a01995050600181019050610ef0565b50829750879550505050505092915050565b6000610f4582611350565b610f4f8185611391565b935083602082028501610f6185611335565b8060005b85811015610f9d5784840389528151610f7e8582610e93565b9450610f8983611373565b925060208a01995050600181019050610f65565b50829750879550505050505092915050565b610fb88161142c565b82525050565b6000610fc98261135b565b610fd381856113a2565b9350610fe3818560208601611471565b610fec81611563565b840191505092915050565b60006110028261135b565b61100c81856113b3565b935061101c818560208601611471565b61102581611563565b840191505092915050565b600060e0830160008301516110486000860182611184565b50602083015161105b6020860182610ea7565b50604083015161106e6040860182611184565b50606083015184820360608601526110868282610fbe565b915050608083015184820360808601526110a08282610fbe565b91505060a083015184820360a08601526110ba8282610ec5565b91505060c08301516110cf60c0860182610faf565b508091505092915050565b600060e0830160008301516110f26000860182611184565b5060208301516111056020860182610ea7565b5060408301516111186040860182611184565b50606083015184820360608601526111308282610fbe565b9150506080830151848203608086015261114a8282610fbe565b91505060a083015184820360a08601526111648282610ec5565b91505060c083015161117960c0860182610faf565b508091505092915050565b61118d81611458565b82525050565b61119c81611458565b82525050565b600060208201905081810360008301526111bc8184610f3a565b905092915050565b600060208201905081810360008301526111de8184610ff7565b905092915050565b600060608201905081810360008301526112008186610ff7565b905061120f6020830185610eb6565b81810360408301526112218184610ff7565b9050949350505050565b600060408201905081810360008301526112458185610ff7565b90506112546020830184611193565b9392505050565b6000602082019050818103600083015261127581846110da565b905092915050565b60006020820190506112926000830184611193565b92915050565b6000604051905081810181811067ffffffffffffffff821117156112bf576112be611534565b5b8060405250919050565b600067ffffffffffffffff8211156112e4576112e3611534565b5b602082029050602081019050919050565b600067ffffffffffffffff8211156113105761130f611534565b5b601f19601f8301169050602081019050919050565b6000819050602082019050919050565b6000819050602082019050919050565b600081519050919050565b600081519050919050565b600081519050919050565b6000602082019050919050565b6000602082019050919050565b600082825260208201905092915050565b600082825260208201905092915050565b600082825260208201905092915050565b600082825260208201905092915050565b60006113cf82611458565b91506113da83611458565b9250827fffffffffffffffffffffffffffffffffffffffffffffffffffffffffffffffff0382111561140f5761140e6114d6565b5b828201905092915050565b600061142582611438565b9050919050565b60008115159050919050565b600073ffffffffffffffffffffffffffffffffffffffff82169050919050565b6000819050919050565b82818337600083830152505050565b60005b8381101561148f578082015181840152602081019050611474565b8381111561149e576000848401525b50505050565b600060028204905060018216806114bc57607f821691505b602082108114156114d0576114cf611505565b5b50919050565b7f4e487b7100000000000000000000000000000000000000000000000000000000600052601160045260246000fd5b7f4e487b7100000000000000000000000000000000000000000000000000000000600052602260045260246000fd5b7f4e487b7100000000000000000000000000000000000000000000000000000000600052604160045260246000fd5b6000601f19601f8301169050919050565b61157d8161142c565b811461158857600080fd5b50565b61159481611458565b811461159f57600080fd5b5056fe2573206372696f7520756d6120766f746163616f20636f6d206f20746974756c6f3a202573a26469706673582212204842837075dd7d4a91de876630dc399bfb695765d92d03662d8a0b15e5511b7564736f6c63430008000033",
  "linkReferences": {},
  "deployedLinkReferences": {}
}