{
  "_format": "hh-sol-artifact-1",
  "contractName": "VotePortal",
  "sourceName": "contracts/VotePortal.sol",
  "abi": [
    {
      "inputs": [],
      "stateMutability": "nonpayable",
      "type": "constructor"
    },
    {
      "inputs": [],
      "name": "getAllVotes",
      "outputs": [
        {
          "components": [
            {
              "internalType": "address",
              "name": "voter",
              "type": "address"
            },
            {
              "internalType": "uint256",
              "name": "timestamp",
              "type": "uint256"
            },
            {
              "internalType": "uint256",
              "name": "option",
              "type": "uint256"
            }
          ],
          "internalType": "struct VotePortal.Vote[]",
          "name": "",
          "type": "tuple[]"
        }
      ],
      "stateMutability": "view",
      "type": "function"
    },
    {
      "inputs": [],
      "name": "getTotalVotes",
      "outputs": [
        {
          "internalType": "uint256",
          "name": "",
          "type": "uint256"
        }
      ],
      "stateMutability": "view",
      "type": "function"
    },
    {
      "inputs": [
        {
          "internalType": "uint256",
          "name": "_option",
          "type": "uint256"
        }
      ],
      "name": "vote",
      "outputs": [],
      "stateMutability": "nonpayable",
      "type": "function"
    }
  ],
  "bytecode": "0x608060405234801561001057600080fd5b506100596040518060400160405280601381526020017f566f746520536d61727420436f6e74726163740000000000000000000000000081525061005e60201b6102c71760201c565b6101e1565b6100fa81604051602401610072919061015f565b6040516020818303038152906040527f41304fac000000000000000000000000000000000000000000000000000000007bffffffffffffffffffffffffffffffffffffffffffffffffffffffff19166020820180517bffffffffffffffffffffffffffffffffffffffffffffffffffffffff83818316178352505050506100fd60201b60201c565b50565b60008151905060006a636f6e736f6c652e6c6f679050602083016000808483855afa5050505050565b600061013182610181565b61013b818561018c565b935061014b81856020860161019d565b610154816101d0565b840191505092915050565b600060208201905081810360008301526101798184610126565b905092915050565b600081519050919050565b600082825260208201905092915050565b60005b838110156101bb5780820151818401526020810190506101a0565b838111156101ca576000848401525b50505050565b6000601f19601f8301169050919050565b6108a3806101f06000396000f3fe608060405234801561001057600080fd5b50600436106100415760003560e01c80630121b93f14610046578063851b6ef2146100625780639a0e7d6614610080575b600080fd5b610060600480360381019061005b91906104d9565b61009e565b005b61006a6101b3565b604051610077919061062f565b60405180910390f35b61008861027c565b60405161009591906106e1565b60405180910390f35b60016000808282546100b09190610751565b925050819055506100f76040518060400160405280600e81526020017f257320766f746f7520656d2025730000000000000000000000000000000000008152503383610360565b600160405180606001604052803373ffffffffffffffffffffffffffffffffffffffff16815260200142815260200183815250908060018154018082558091505060019003906000526020600020906003020160009091909190915060008201518160000160006101000a81548173ffffffffffffffffffffffffffffffffffffffff021916908373ffffffffffffffffffffffffffffffffffffffff1602179055506020820151816001015560408201518160020155505050565b60606001805480602002602001604051908101604052809291908181526020016000905b8282101561027357838290600052602060002090600302016040518060600160405290816000820160009054906101000a900473ffffffffffffffffffffffffffffffffffffffff1673ffffffffffffffffffffffffffffffffffffffff1673ffffffffffffffffffffffffffffffffffffffff16815260200160018201548152602001600282015481525050815260200190600101906101d7565b50505050905090565b60006102bf6040518060400160405280601e81526020017f54656d6f732025642074636861757a696e686f73206e6f20746f74616c2100008152506000546103ff565b600054905090565b61035d816040516024016102db9190610651565b6040516020818303038152906040527f41304fac000000000000000000000000000000000000000000000000000000007bffffffffffffffffffffffffffffffffffffffffffffffffffffffff19166020820180517bffffffffffffffffffffffffffffffffffffffffffffffffffffffff838183161783525050505061049b565b50565b6103fa83838360405160240161037893929190610673565b6040516020818303038152906040527f07c81217000000000000000000000000000000000000000000000000000000007bffffffffffffffffffffffffffffffffffffffffffffffffffffffff19166020820180517bffffffffffffffffffffffffffffffffffffffffffffffffffffffff838183161783525050505061049b565b505050565b61049782826040516024016104159291906106b1565b6040516020818303038152906040527f9710a9d0000000000000000000000000000000000000000000000000000000007bffffffffffffffffffffffffffffffffffffffffffffffffffffffff19166020820180517bffffffffffffffffffffffffffffffffffffffffffffffffffffffff838183161783525050505061049b565b5050565b60008151905060006a636f6e736f6c652e6c6f679050602083016000808483855afa5050505050565b6000813590506104d381610856565b92915050565b6000602082840312156104eb57600080fd5b60006104f9848285016104c4565b91505092915050565b600061050e83836105cf565b60608301905092915050565b610523816107a7565b82525050565b610532816107a7565b82525050565b60006105438261070c565b61054d818561072f565b9350610558836106fc565b8060005b838110156105895781516105708882610502565b975061057b83610722565b92505060018101905061055c565b5085935050505092915050565b60006105a182610717565b6105ab8185610740565b93506105bb8185602086016107e3565b6105c481610845565b840191505092915050565b6060820160008201516105e5600085018261051a565b5060208201516105f86020850182610611565b50604082015161060b6040850182610611565b50505050565b61061a816107d9565b82525050565b610629816107d9565b82525050565b600060208201905081810360008301526106498184610538565b905092915050565b6000602082019050818103600083015261066b8184610596565b905092915050565b6000606082019050818103600083015261068d8186610596565b905061069c6020830185610529565b6106a96040830184610620565b949350505050565b600060408201905081810360008301526106cb8185610596565b90506106da6020830184610620565b9392505050565b60006020820190506106f66000830184610620565b92915050565b6000819050602082019050919050565b600081519050919050565b600081519050919050565b6000602082019050919050565b600082825260208201905092915050565b600082825260208201905092915050565b600061075c826107d9565b9150610767836107d9565b9250827fffffffffffffffffffffffffffffffffffffffffffffffffffffffffffffffff0382111561079c5761079b610816565b5b828201905092915050565b60006107b2826107b9565b9050919050565b600073ffffffffffffffffffffffffffffffffffffffff82169050919050565b6000819050919050565b60005b838110156108015780820151818401526020810190506107e6565b83811115610810576000848401525b50505050565b7f4e487b7100000000000000000000000000000000000000000000000000000000600052601160045260246000fd5b6000601f19601f8301169050919050565b61085f816107d9565b811461086a57600080fd5b5056fea264697066735822122058170718a893a29e215d561d076b5724196eb02ee3be84f7d658e2a9e892a8bf64736f6c63430008000033",
  "linkReferences": {},
  "deployedLinkReferences": {}
}