{
  "_format": "hh-sol-artifact-1",
  "contractName": "VotePortal",
  "sourceName": "contracts/VotePortal.sol",
  "abi": [
    {
      "inputs": [],
      "stateMutability": "nonpayable",
      "type": "constructor"
    },
    {
      "anonymous": false,
      "inputs": [
        {
          "indexed": true,
          "internalType": "address",
          "name": "from",
          "type": "address"
        },
        {
          "indexed": false,
          "internalType": "uint256",
          "name": "timestamp",
          "type": "uint256"
        },
        {
          "indexed": false,
          "internalType": "string",
          "name": "message",
          "type": "string"
        }
      ],
      "name": "NewVote",
      "type": "event"
    },
    {
      "inputs": [],
      "name": "getAllVotes",
      "outputs": [
        {
          "components": [
            {
              "internalType": "address",
              "name": "voter",
              "type": "address"
            },
            {
              "internalType": "string",
              "name": "message",
              "type": "string"
            },
            {
              "internalType": "uint256",
              "name": "timestamp",
              "type": "uint256"
            }
          ],
          "internalType": "struct VotePortal.Vote[]",
          "name": "",
          "type": "tuple[]"
        }
      ],
      "stateMutability": "view",
      "type": "function"
    },
    {
      "inputs": [],
      "name": "getTotalVotes",
      "outputs": [
        {
          "internalType": "uint256",
          "name": "",
          "type": "uint256"
        }
      ],
      "stateMutability": "view",
      "type": "function"
    },
    {
      "inputs": [
        {
          "internalType": "string",
          "name": "_message",
          "type": "string"
        }
      ],
      "name": "vote",
      "outputs": [],
      "stateMutability": "nonpayable",
      "type": "function"
    }
  ],
  "bytecode": "0x60806040523480156200001157600080fd5b506200004160405180606001604052806024815260200162000e12602491396200004760201b620003b21760201c565b620001db565b620000e7816040516024016200005e919062000154565b6040516020818303038152906040527f41304fac000000000000000000000000000000000000000000000000000000007bffffffffffffffffffffffffffffffffffffffffffffffffffffffff19166020820180517bffffffffffffffffffffffffffffffffffffffffffffffffffffffff8381831617835250505050620000ea60201b60201c565b50565b60008151905060006a636f6e736f6c652e6c6f679050602083016000808483855afa5050505050565b6000620001208262000178565b6200012c818562000183565b93506200013e81856020860162000194565b6200014981620001ca565b840191505092915050565b6000602082019050818103600083015262000170818462000113565b905092915050565b600081519050919050565b600082825260208201905092915050565b60005b83811015620001b457808201518184015260208101905062000197565b83811115620001c4576000848401525b50505050565b6000601f19601f8301169050919050565b610c2780620001eb6000396000f3fe608060405234801561001057600080fd5b50600436106100415760003560e01c8063851b6ef2146100465780639a0e7d6614610064578063fc36e15b14610082575b600080fd5b61004e61009e565b60405161005b9190610882565b60405180910390f35b61006c6101ef565b604051610079919061093b565b60405180910390f35b61009c600480360381019061009791906106ba565b61023a565b005b60606001805480602002602001604051908101604052809291908181526020016000905b828210156101e657838290600052602060002090600302016040518060600160405290816000820160009054906101000a900473ffffffffffffffffffffffffffffffffffffffff1673ffffffffffffffffffffffffffffffffffffffff1673ffffffffffffffffffffffffffffffffffffffff16815260200160018201805461014b90610b21565b80601f016020809104026020016040519081016040528092919081815260200182805461017790610b21565b80156101c45780601f10610199576101008083540402835291602001916101c4565b820191906000526020600020905b8154815290600101906020018083116101a757829003601f168201915b50505050508152602001600282015481525050815260200190600101906100c2565b50505050905090565b60006102326040518060400160405280601e81526020017f54656d6f732025642074636861757a696e686f73206e6f20746f74616c21000081525060005461044b565b600054905090565b600160008082825461024c9190610a4d565b925050819055506102936040518060400160405280601a81526020017f257320766f746f7520636f6d2061206d656e736167656d20257300000000000081525033836104e7565b600160405180606001604052803373ffffffffffffffffffffffffffffffffffffffff16815260200183815260200142815250908060018154018082558091505060019003906000526020600020906003020160009091909190915060008201518160000160006101000a81548173ffffffffffffffffffffffffffffffffffffffff021916908373ffffffffffffffffffffffffffffffffffffffff16021790555060208201518160010190805190602001906103529291906105af565b506040820151816002015550503373ffffffffffffffffffffffffffffffffffffffff167ff3bb4a59f9a41b07650fa6eb0aaaf8f6e78fe9a712e0c0989ee060358403a89c42836040516103a7929190610956565b60405180910390a250565b610448816040516024016103c691906108a4565b6040516020818303038152906040527f41304fac000000000000000000000000000000000000000000000000000000007bffffffffffffffffffffffffffffffffffffffffffffffffffffffff19166020820180517bffffffffffffffffffffffffffffffffffffffffffffffffffffffff8381831617835250505050610586565b50565b6104e3828260405160240161046192919061090b565b6040516020818303038152906040527f9710a9d0000000000000000000000000000000000000000000000000000000007bffffffffffffffffffffffffffffffffffffffffffffffffffffffff19166020820180517bffffffffffffffffffffffffffffffffffffffffffffffffffffffff8381831617835250505050610586565b5050565b6105818383836040516024016104ff939291906108c6565b6040516020818303038152906040527fe0e9ad4f000000000000000000000000000000000000000000000000000000007bffffffffffffffffffffffffffffffffffffffffffffffffffffffff19166020820180517bffffffffffffffffffffffffffffffffffffffffffffffffffffffff8381831617835250505050610586565b505050565b60008151905060006a636f6e736f6c652e6c6f679050602083016000808483855afa5050505050565b8280546105bb90610b21565b90600052602060002090601f0160209004810192826105dd5760008555610624565b82601f106105f657805160ff1916838001178555610624565b82800160010185558215610624579182015b82811115610623578251825591602001919060010190610608565b5b5090506106319190610635565b5090565b5b8082111561064e576000816000905550600101610636565b5090565b6000610665610660846109b7565b610986565b90508281526020810184848401111561067d57600080fd5b610688848285610adf565b509392505050565b600082601f8301126106a157600080fd5b81356106b1848260208601610652565b91505092915050565b6000602082840312156106cc57600080fd5b600082013567ffffffffffffffff8111156106e657600080fd5b6106f284828501610690565b91505092915050565b60006107078383610814565b905092915050565b61071881610aa3565b82525050565b61072781610aa3565b82525050565b6000610738826109f7565b6107428185610a1a565b935083602082028501610754856109e7565b8060005b85811015610790578484038952815161077185826106fb565b945061077c83610a0d565b925060208a01995050600181019050610758565b50829750879550505050505092915050565b60006107ad82610a02565b6107b78185610a2b565b93506107c7818560208601610aee565b6107d081610be0565b840191505092915050565b60006107e682610a02565b6107f08185610a3c565b9350610800818560208601610aee565b61080981610be0565b840191505092915050565b600060608301600083015161082c600086018261070f565b506020830151848203602086015261084482826107a2565b91505060408301516108596040860182610864565b508091505092915050565b61086d81610ad5565b82525050565b61087c81610ad5565b82525050565b6000602082019050818103600083015261089c818461072d565b905092915050565b600060208201905081810360008301526108be81846107db565b905092915050565b600060608201905081810360008301526108e081866107db565b90506108ef602083018561071e565b818103604083015261090181846107db565b9050949350505050565b6000604082019050818103600083015261092581856107db565b90506109346020830184610873565b9392505050565b60006020820190506109506000830184610873565b92915050565b600060408201905061096b6000830185610873565b818103602083015261097d81846107db565b90509392505050565b6000604051905081810181811067ffffffffffffffff821117156109ad576109ac610bb1565b5b8060405250919050565b600067ffffffffffffffff8211156109d2576109d1610bb1565b5b601f19601f8301169050602081019050919050565b6000819050602082019050919050565b600081519050919050565b600081519050919050565b6000602082019050919050565b600082825260208201905092915050565b600082825260208201905092915050565b600082825260208201905092915050565b6000610a5882610ad5565b9150610a6383610ad5565b9250827fffffffffffffffffffffffffffffffffffffffffffffffffffffffffffffffff03821115610a9857610a97610b53565b5b828201905092915050565b6000610aae82610ab5565b9050919050565b600073ffffffffffffffffffffffffffffffffffffffff82169050919050565b6000819050919050565b82818337600083830152505050565b60005b83811015610b0c578082015181840152602081019050610af1565b83811115610b1b576000848401525b50505050565b60006002820490506001821680610b3957607f821691505b60208210811415610b4d57610b4c610b82565b5b50919050565b7f4e487b7100000000000000000000000000000000000000000000000000000000600052601160045260246000fd5b7f4e487b7100000000000000000000000000000000000000000000000000000000600052602260045260246000fd5b7f4e487b7100000000000000000000000000000000000000000000000000000000600052604160045260246000fd5b6000601f19601f830116905091905056fea2646970667358221220ff3d98707fd6f2929d1d456c458c86aa4d97d8cabb474c8063af73809f584f9964736f6c63430008000033455520534f5520554d20434f4e545241544f20494e54454c4947454e54452e20504f472e",
  "linkReferences": {},
  "deployedLinkReferences": {}
}